{
  "_format": "hh-sol-artifact-1",
  "contractName": "GovernanceToken",
  "sourceName": "contracts/governance/Governance.sol",
  "abi": [
    {
      "inputs": [],
      "stateMutability": "nonpayable",
      "type": "constructor"
    },
    {
      "inputs": [],
      "name": "InvalidShortString",
      "type": "error"
    },
    {
      "inputs": [
        {
          "internalType": "string",
          "name": "str",
          "type": "string"
        }
      ],
      "name": "StringTooLong",
      "type": "error"
    },
    {
      "anonymous": false,
      "inputs": [
        {
          "indexed": true,
          "internalType": "address",
          "name": "owner",
          "type": "address"
        },
        {
          "indexed": true,
          "internalType": "address",
          "name": "spender",
          "type": "address"
        },
        {
          "indexed": false,
          "internalType": "uint256",
          "name": "value",
          "type": "uint256"
        }
      ],
      "name": "Approval",
      "type": "event"
    },
    {
      "anonymous": false,
      "inputs": [
        {
          "indexed": true,
          "internalType": "address",
          "name": "delegator",
          "type": "address"
        },
        {
          "indexed": true,
          "internalType": "address",
          "name": "fromDelegate",
          "type": "address"
        },
        {
          "indexed": true,
          "internalType": "address",
          "name": "toDelegate",
          "type": "address"
        }
      ],
      "name": "DelegateChanged",
      "type": "event"
    },
    {
      "anonymous": false,
      "inputs": [
        {
          "indexed": true,
          "internalType": "address",
          "name": "delegate",
          "type": "address"
        },
        {
          "indexed": false,
          "internalType": "uint256",
          "name": "previousBalance",
          "type": "uint256"
        },
        {
          "indexed": false,
          "internalType": "uint256",
          "name": "newBalance",
          "type": "uint256"
        }
      ],
      "name": "DelegateVotesChanged",
      "type": "event"
    },
    {
      "anonymous": false,
      "inputs": [],
      "name": "EIP712DomainChanged",
      "type": "event"
    },
    {
      "anonymous": false,
      "inputs": [
        {
          "indexed": true,
          "internalType": "bytes32",
          "name": "role",
          "type": "bytes32"
        },
        {
          "indexed": true,
          "internalType": "bytes32",
          "name": "previousAdminRole",
          "type": "bytes32"
        },
        {
          "indexed": true,
          "internalType": "bytes32",
          "name": "newAdminRole",
          "type": "bytes32"
        }
      ],
      "name": "RoleAdminChanged",
      "type": "event"
    },
    {
      "anonymous": false,
      "inputs": [
        {
          "indexed": true,
          "internalType": "bytes32",
          "name": "role",
          "type": "bytes32"
        },
        {
          "indexed": true,
          "internalType": "address",
          "name": "account",
          "type": "address"
        },
        {
          "indexed": true,
          "internalType": "address",
          "name": "sender",
          "type": "address"
        }
      ],
      "name": "RoleGranted",
      "type": "event"
    },
    {
      "anonymous": false,
      "inputs": [
        {
          "indexed": true,
          "internalType": "bytes32",
          "name": "role",
          "type": "bytes32"
        },
        {
          "indexed": true,
          "internalType": "address",
          "name": "account",
          "type": "address"
        },
        {
          "indexed": true,
          "internalType": "address",
          "name": "sender",
          "type": "address"
        }
      ],
      "name": "RoleRevoked",
      "type": "event"
    },
    {
      "anonymous": false,
      "inputs": [
        {
          "indexed": true,
          "internalType": "address",
          "name": "from",
          "type": "address"
        },
        {
          "indexed": true,
          "internalType": "address",
          "name": "to",
          "type": "address"
        },
        {
          "indexed": false,
          "internalType": "uint256",
          "name": "value",
          "type": "uint256"
        }
      ],
      "name": "Transfer",
      "type": "event"
    },
    {
      "inputs": [],
      "name": "BURNER_ROLE",
      "outputs": [
        {
          "internalType": "bytes32",
          "name": "",
          "type": "bytes32"
        }
      ],
      "stateMutability": "view",
      "type": "function"
    },
    {
      "inputs": [],
      "name": "CLOCK_MODE",
      "outputs": [
        {
          "internalType": "string",
          "name": "",
          "type": "string"
        }
      ],
      "stateMutability": "view",
      "type": "function"
    },
    {
      "inputs": [],
      "name": "DEFAULT_ADMIN_ROLE",
      "outputs": [
        {
          "internalType": "bytes32",
          "name": "",
          "type": "bytes32"
        }
      ],
      "stateMutability": "view",
      "type": "function"
    },
    {
      "inputs": [],
      "name": "DOMAIN_SEPARATOR",
      "outputs": [
        {
          "internalType": "bytes32",
          "name": "",
          "type": "bytes32"
        }
      ],
      "stateMutability": "view",
      "type": "function"
    },
    {
      "inputs": [],
      "name": "MINTER_ROLE",
      "outputs": [
        {
          "internalType": "bytes32",
          "name": "",
          "type": "bytes32"
        }
      ],
      "stateMutability": "view",
      "type": "function"
    },
    {
      "inputs": [
        {
          "internalType": "address",
          "name": "owner",
          "type": "address"
        },
        {
          "internalType": "address",
          "name": "spender",
          "type": "address"
        }
      ],
      "name": "allowance",
      "outputs": [
        {
          "internalType": "uint256",
          "name": "",
          "type": "uint256"
        }
      ],
      "stateMutability": "view",
      "type": "function"
    },
    {
      "inputs": [
        {
          "internalType": "address",
          "name": "spender",
          "type": "address"
        },
        {
          "internalType": "uint256",
          "name": "amount",
          "type": "uint256"
        }
      ],
      "name": "approve",
      "outputs": [
        {
          "internalType": "bool",
          "name": "",
          "type": "bool"
        }
      ],
      "stateMutability": "nonpayable",
      "type": "function"
    },
    {
      "inputs": [
        {
          "internalType": "address",
          "name": "account",
          "type": "address"
        }
      ],
      "name": "balanceOf",
      "outputs": [
        {
          "internalType": "uint256",
          "name": "",
          "type": "uint256"
        }
      ],
      "stateMutability": "view",
      "type": "function"
    },
    {
      "inputs": [
        {
          "internalType": "uint256",
          "name": "amount",
          "type": "uint256"
        }
      ],
      "name": "burn",
      "outputs": [],
      "stateMutability": "nonpayable",
      "type": "function"
    },
    {
      "inputs": [
        {
          "internalType": "address",
          "name": "account",
          "type": "address"
        },
        {
          "internalType": "uint32",
          "name": "pos",
          "type": "uint32"
        }
      ],
      "name": "checkpoints",
      "outputs": [
        {
          "components": [
            {
              "internalType": "uint32",
              "name": "fromBlock",
              "type": "uint32"
            },
            {
              "internalType": "uint224",
              "name": "votes",
              "type": "uint224"
            }
          ],
          "internalType": "struct ERC20Votes.Checkpoint",
          "name": "",
          "type": "tuple"
        }
      ],
      "stateMutability": "view",
      "type": "function"
    },
    {
      "inputs": [],
      "name": "clock",
      "outputs": [
        {
          "internalType": "uint48",
          "name": "",
          "type": "uint48"
        }
      ],
      "stateMutability": "view",
      "type": "function"
    },
    {
      "inputs": [],
      "name": "decimals",
      "outputs": [
        {
          "internalType": "uint8",
          "name": "",
          "type": "uint8"
        }
      ],
      "stateMutability": "view",
      "type": "function"
    },
    {
      "inputs": [
        {
          "internalType": "address",
          "name": "spender",
          "type": "address"
        },
        {
          "internalType": "uint256",
          "name": "subtractedValue",
          "type": "uint256"
        }
      ],
      "name": "decreaseAllowance",
      "outputs": [
        {
          "internalType": "bool",
          "name": "",
          "type": "bool"
        }
      ],
      "stateMutability": "nonpayable",
      "type": "function"
    },
    {
      "inputs": [
        {
          "internalType": "address",
          "name": "delegatee",
          "type": "address"
        }
      ],
      "name": "delegate",
      "outputs": [],
      "stateMutability": "nonpayable",
      "type": "function"
    },
    {
      "inputs": [
        {
          "internalType": "address",
          "name": "delegatee",
          "type": "address"
        },
        {
          "internalType": "uint256",
          "name": "nonce",
          "type": "uint256"
        },
        {
          "internalType": "uint256",
          "name": "expiry",
          "type": "uint256"
        },
        {
          "internalType": "uint8",
          "name": "v",
          "type": "uint8"
        },
        {
          "internalType": "bytes32",
          "name": "r",
          "type": "bytes32"
        },
        {
          "internalType": "bytes32",
          "name": "s",
          "type": "bytes32"
        }
      ],
      "name": "delegateBySig",
      "outputs": [],
      "stateMutability": "nonpayable",
      "type": "function"
    },
    {
      "inputs": [
        {
          "internalType": "address",
          "name": "account",
          "type": "address"
        }
      ],
      "name": "delegates",
      "outputs": [
        {
          "internalType": "address",
          "name": "",
          "type": "address"
        }
      ],
      "stateMutability": "view",
      "type": "function"
    },
    {
      "inputs": [],
      "name": "eip712Domain",
      "outputs": [
        {
          "internalType": "bytes1",
          "name": "fields",
          "type": "bytes1"
        },
        {
          "internalType": "string",
          "name": "name",
          "type": "string"
        },
        {
          "internalType": "string",
          "name": "version",
          "type": "string"
        },
        {
          "internalType": "uint256",
          "name": "chainId",
          "type": "uint256"
        },
        {
          "internalType": "address",
          "name": "verifyingContract",
          "type": "address"
        },
        {
          "internalType": "bytes32",
          "name": "salt",
          "type": "bytes32"
        },
        {
          "internalType": "uint256[]",
          "name": "extensions",
          "type": "uint256[]"
        }
      ],
      "stateMutability": "view",
      "type": "function"
    },
    {
      "inputs": [
        {
          "internalType": "uint256",
          "name": "timepoint",
          "type": "uint256"
        }
      ],
      "name": "getPastTotalSupply",
      "outputs": [
        {
          "internalType": "uint256",
          "name": "",
          "type": "uint256"
        }
      ],
      "stateMutability": "view",
      "type": "function"
    },
    {
      "inputs": [
        {
          "internalType": "address",
          "name": "account",
          "type": "address"
        },
        {
          "internalType": "uint256",
          "name": "timepoint",
          "type": "uint256"
        }
      ],
      "name": "getPastVotes",
      "outputs": [
        {
          "internalType": "uint256",
          "name": "",
          "type": "uint256"
        }
      ],
      "stateMutability": "view",
      "type": "function"
    },
    {
      "inputs": [
        {
          "internalType": "bytes32",
          "name": "role",
          "type": "bytes32"
        }
      ],
      "name": "getRoleAdmin",
      "outputs": [
        {
          "internalType": "bytes32",
          "name": "",
          "type": "bytes32"
        }
      ],
      "stateMutability": "view",
      "type": "function"
    },
    {
      "inputs": [
        {
          "internalType": "address",
          "name": "account",
          "type": "address"
        }
      ],
      "name": "getVotes",
      "outputs": [
        {
          "internalType": "uint256",
          "name": "",
          "type": "uint256"
        }
      ],
      "stateMutability": "view",
      "type": "function"
    },
    {
      "inputs": [
        {
          "internalType": "bytes32",
          "name": "role",
          "type": "bytes32"
        },
        {
          "internalType": "address",
          "name": "account",
          "type": "address"
        }
      ],
      "name": "grantRole",
      "outputs": [],
      "stateMutability": "nonpayable",
      "type": "function"
    },
    {
      "inputs": [
        {
          "internalType": "bytes32",
          "name": "role",
          "type": "bytes32"
        },
        {
          "internalType": "address",
          "name": "account",
          "type": "address"
        }
      ],
      "name": "hasRole",
      "outputs": [
        {
          "internalType": "bool",
          "name": "",
          "type": "bool"
        }
      ],
      "stateMutability": "view",
      "type": "function"
    },
    {
      "inputs": [
        {
          "internalType": "address",
          "name": "spender",
          "type": "address"
        },
        {
          "internalType": "uint256",
          "name": "addedValue",
          "type": "uint256"
        }
      ],
      "name": "increaseAllowance",
      "outputs": [
        {
          "internalType": "bool",
          "name": "",
          "type": "bool"
        }
      ],
      "stateMutability": "nonpayable",
      "type": "function"
    },
    {
      "inputs": [
        {
          "internalType": "address",
          "name": "to",
          "type": "address"
        },
        {
          "internalType": "uint256",
          "name": "amount",
          "type": "uint256"
        }
      ],
      "name": "mint",
      "outputs": [],
      "stateMutability": "nonpayable",
      "type": "function"
    },
    {
      "inputs": [],
      "name": "name",
      "outputs": [
        {
          "internalType": "string",
          "name": "",
          "type": "string"
        }
      ],
      "stateMutability": "view",
      "type": "function"
    },
    {
      "inputs": [
        {
          "internalType": "address",
          "name": "owner",
          "type": "address"
        }
      ],
      "name": "nonces",
      "outputs": [
        {
          "internalType": "uint256",
          "name": "",
          "type": "uint256"
        }
      ],
      "stateMutability": "view",
      "type": "function"
    },
    {
      "inputs": [
        {
          "internalType": "address",
          "name": "account",
          "type": "address"
        }
      ],
      "name": "numCheckpoints",
      "outputs": [
        {
          "internalType": "uint32",
          "name": "",
          "type": "uint32"
        }
      ],
      "stateMutability": "view",
      "type": "function"
    },
    {
      "inputs": [
        {
          "internalType": "address",
          "name": "owner",
          "type": "address"
        },
        {
          "internalType": "address",
          "name": "spender",
          "type": "address"
        },
        {
          "internalType": "uint256",
          "name": "value",
          "type": "uint256"
        },
        {
          "internalType": "uint256",
          "name": "deadline",
          "type": "uint256"
        },
        {
          "internalType": "uint8",
          "name": "v",
          "type": "uint8"
        },
        {
          "internalType": "bytes32",
          "name": "r",
          "type": "bytes32"
        },
        {
          "internalType": "bytes32",
          "name": "s",
          "type": "bytes32"
        }
      ],
      "name": "permit",
      "outputs": [],
      "stateMutability": "nonpayable",
      "type": "function"
    },
    {
      "inputs": [
        {
          "internalType": "bytes32",
          "name": "role",
          "type": "bytes32"
        },
        {
          "internalType": "address",
          "name": "account",
          "type": "address"
        }
      ],
      "name": "renounceRole",
      "outputs": [],
      "stateMutability": "nonpayable",
      "type": "function"
    },
    {
      "inputs": [
        {
          "internalType": "bytes32",
          "name": "role",
          "type": "bytes32"
        },
        {
          "internalType": "address",
          "name": "account",
          "type": "address"
        }
      ],
      "name": "revokeRole",
      "outputs": [],
      "stateMutability": "nonpayable",
      "type": "function"
    },
    {
      "inputs": [
        {
          "internalType": "bytes4",
          "name": "interfaceId",
          "type": "bytes4"
        }
      ],
      "name": "supportsInterface",
      "outputs": [
        {
          "internalType": "bool",
          "name": "",
          "type": "bool"
        }
      ],
      "stateMutability": "view",
      "type": "function"
    },
    {
      "inputs": [],
      "name": "symbol",
      "outputs": [
        {
          "internalType": "string",
          "name": "",
          "type": "string"
        }
      ],
      "stateMutability": "view",
      "type": "function"
    },
    {
      "inputs": [],
      "name": "totalSupply",
      "outputs": [
        {
          "internalType": "uint256",
          "name": "",
          "type": "uint256"
        }
      ],
      "stateMutability": "view",
      "type": "function"
    },
    {
      "inputs": [
        {
          "internalType": "address",
          "name": "to",
          "type": "address"
        },
        {
          "internalType": "uint256",
          "name": "amount",
          "type": "uint256"
        }
      ],
      "name": "transfer",
      "outputs": [
        {
          "internalType": "bool",
          "name": "",
          "type": "bool"
        }
      ],
      "stateMutability": "nonpayable",
      "type": "function"
    },
    {
      "inputs": [
        {
          "internalType": "address",
          "name": "from",
          "type": "address"
        },
        {
          "internalType": "address",
          "name": "to",
          "type": "address"
        },
        {
          "internalType": "uint256",
          "name": "amount",
          "type": "uint256"
        }
      ],
      "name": "transferFrom",
      "outputs": [
        {
          "internalType": "bool",
          "name": "",
          "type": "bool"
        }
      ],
      "stateMutability": "nonpayable",
      "type": "function"
    }
  ],
  "bytecode": "0x6101606040523480156200001257600080fd5b506040518060400160405280601081526020017f476f7665726e616e636520546f6b656e00000000000000000000000000000000815250806040518060400160405280600181526020017f31000000000000000000000000000000000000000000000000000000000000008152506040518060400160405280601081526020017f476f7665726e616e636520546f6b656e000000000000000000000000000000008152506040518060400160405280600281526020017f47540000000000000000000000000000000000000000000000000000000000008152508160039081620000fd91906200115b565b5080600490816200010f91906200115b565b5050506200012d6005836200026960201b6200156a1790919060201c565b6101208181525050620001506006826200026960201b6200156a1790919060201c565b6101408181525050818051906020012060e08181525050808051906020012061010081815250504660a081815250506200018f620002c660201b60201c565b608081815250503073ffffffffffffffffffffffffffffffffffffffff1660c08173ffffffffffffffffffffffffffffffffffffffff1681525050505050620001e26000801b336200032360201b60201c565b620002147f9f2df0fed2c77648de5860a4cc508cd0818c85b8b8a1ab4ceeef8d981c8956a6336200032360201b60201c565b620002467f3c11d16cbaffd01df69ce1c404f6340ee057498f5f00246190ea54220576a848336200032360201b60201c565b62000263336a52b7d2dcc80cd2e40000006200041560201b60201c565b62001826565b60006020835110156200028f576200028783620004d360201b60201c565b9050620002c0565b82620002a6836200054060201b620015ae1760201c565b6000019081620002b791906200115b565b5060ff60001b90505b92915050565b60007f8b73c3c69bb8fe3d512ecc4cf759cc79239f7b179b0ffacaa9a75d522b39400f60e05161010051463060405160200162000308959493929190620012b3565b60405160208183030381529060405280519060200120905090565b6200033582826200054a60201b60201c565b62000411576001600c600084815260200190815260200160002060000160008373ffffffffffffffffffffffffffffffffffffffff1673ffffffffffffffffffffffffffffffffffffffff16815260200190815260200160002060006101000a81548160ff021916908315150217905550620003b6620005b560201b60201c565b73ffffffffffffffffffffffffffffffffffffffff168173ffffffffffffffffffffffffffffffffffffffff16837f2f8788117e7eff1d82e926ec794901d17c78024a50270940304540a733656f0d60405160405180910390a45b5050565b6200042c8282620005bd60201b620015b81760201c565b6200043c6200072a60201b60201c565b7bffffffffffffffffffffffffffffffffffffffffffffffffffffffff166200046a6200074e60201b60201c565b1115620004ae576040517f08c379a0000000000000000000000000000000000000000000000000000000008152600401620004a59062001397565b60405180910390fd5b620004cd600b6200075860201b6200170e17836200077060201b60201c565b50505050565b600080829050601f815111156200052357826040517f305a27a90000000000000000000000000000000000000000000000000000000081526004016200051a919062001437565b60405180910390fd5b80518162000531906200148d565b60001c1760001b915050919050565b6000819050919050565b6000600c600084815260200190815260200160002060000160008373ffffffffffffffffffffffffffffffffffffffff1673ffffffffffffffffffffffffffffffffffffffff16815260200190815260200160002060009054906101000a900460ff16905092915050565b600033905090565b600073ffffffffffffffffffffffffffffffffffffffff168273ffffffffffffffffffffffffffffffffffffffff16036200062f576040517f08c379a000000000000000000000000000000000000000000000000000000000815260040162000626906200154d565b60405180910390fd5b620006436000838362000a9560201b60201c565b80600260008282546200065791906200159e565b92505081905550806000808473ffffffffffffffffffffffffffffffffffffffff1673ffffffffffffffffffffffffffffffffffffffff168152602001908152602001600020600082825401925050819055508173ffffffffffffffffffffffffffffffffffffffff16600073ffffffffffffffffffffffffffffffffffffffff167fddf252ad1be2c89b69c2b068fc378daa952ba7f163c4a11628f55a4df523b3ef836040516200070a9190620015d9565b60405180910390a3620007266000838362000a9a60201b60201c565b5050565b60007bffffffffffffffffffffffffffffffffffffffffffffffffffffffff905090565b6000600254905090565b600081836200076891906200159e565b905092915050565b600080600085805490509050600080821462000840576200079b876001840362000aea60201b60201c565b6040518060400160405290816000820160009054906101000a900463ffffffff1663ffffffff1663ffffffff1681526020016000820160049054906101000a90047bffffffffffffffffffffffffffffffffffffffffffffffffffffffff167bffffffffffffffffffffffffffffffffffffffffffffffffffffffff167bffffffffffffffffffffffffffffffffffffffffffffffffffffffff16815250506200087c565b6040518060400160405280600063ffffffff16815260200160007bffffffffffffffffffffffffffffffffffffffffffffffffffffffff168152505b905080602001517bffffffffffffffffffffffffffffffffffffffffffffffffffffffff169350620008af84868860201c565b9250600082118015620008e25750620008cd62000aff60201b60201c565b65ffffffffffff16816000015163ffffffff16145b156200096a57620008fe8362000b1c60201b620017241760201c565b62000913886001850362000aea60201b60201c565b60000160046101000a8154817bffffffffffffffffffffffffffffffffffffffffffffffffffffffff02191690837bffffffffffffffffffffffffffffffffffffffffffffffffffffffff16021790555062000a8b565b866040518060400160405280620009a36200098a62000aff60201b60201c565b65ffffffffffff1662000b8a60201b6200178f1760201c565b63ffffffff168152602001620009c48662000b1c60201b620017241760201c565b7bffffffffffffffffffffffffffffffffffffffffffffffffffffffff168152509080600181540180825580915050600190039060005260206000200160009091909190915060008201518160000160006101000a81548163ffffffff021916908363ffffffff16021790555060208201518160000160046101000a8154817bffffffffffffffffffffffffffffffffffffffffffffffffffffffff02191690837bffffffffffffffffffffffffffffffffffffffffffffffffffffffff16021790555050505b5050935093915050565b505050565b62000ab283838362000be060201b620017e21760201c565b62000ae562000ac78462000be560201b60201c565b62000ad88462000be560201b60201c565b8362000c4e60201b60201c565b505050565b60008260005281602060002001905092915050565b600062000b174362000e7160201b620017e71760201c565b905090565b60007bffffffffffffffffffffffffffffffffffffffffffffffffffffffff801682111562000b82576040517f08c379a000000000000000000000000000000000000000000000000000000000815260040162000b79906200166c565b60405180910390fd5b819050919050565b600063ffffffff801682111562000bd8576040517f08c379a000000000000000000000000000000000000000000000000000000000815260040162000bcf9062001704565b60405180910390fd5b819050919050565b505050565b6000600960008373ffffffffffffffffffffffffffffffffffffffff1673ffffffffffffffffffffffffffffffffffffffff16815260200190815260200160002060009054906101000a900473ffffffffffffffffffffffffffffffffffffffff169050919050565b8173ffffffffffffffffffffffffffffffffffffffff168373ffffffffffffffffffffffffffffffffffffffff161415801562000c8b5750600081115b1562000e6c57600073ffffffffffffffffffffffffffffffffffffffff168373ffffffffffffffffffffffffffffffffffffffff161462000d7e5760008062000d25600a60008773ffffffffffffffffffffffffffffffffffffffff1673ffffffffffffffffffffffffffffffffffffffff16815260200190815260200160002062000ec960201b6200183c17856200077060201b60201c565b915091508473ffffffffffffffffffffffffffffffffffffffff167fdec2bacdd2f05b59de34da9b523dff8be42e5e38e818c82fdb0bae774387a724838360405162000d7392919062001726565b60405180910390a250505b600073ffffffffffffffffffffffffffffffffffffffff168273ffffffffffffffffffffffffffffffffffffffff161462000e6b5760008062000e12600a60008673ffffffffffffffffffffffffffffffffffffffff1673ffffffffffffffffffffffffffffffffffffffff1681526020019081526020016000206200075860201b6200170e17856200077060201b60201c565b915091508373ffffffffffffffffffffffffffffffffffffffff167fdec2bacdd2f05b59de34da9b523dff8be42e5e38e818c82fdb0bae774387a724838360405162000e6092919062001726565b60405180910390a250505b5b505050565b600065ffffffffffff801682111562000ec1576040517f08c379a000000000000000000000000000000000000000000000000000000000815260040162000eb890620017c9565b60405180910390fd5b819050919050565b6000818362000ed99190620017eb565b905092915050565b600081519050919050565b7f4e487b7100000000000000000000000000000000000000000000000000000000600052604160045260246000fd5b7f4e487b7100000000000000000000000000000000000000000000000000000000600052602260045260246000fd5b6000600282049050600182168062000f6357607f821691505b60208210810362000f795762000f7862000f1b565b5b50919050565b60008190508160005260206000209050919050565b60006020601f8301049050919050565b600082821b905092915050565b60006008830262000fe37fffffffffffffffffffffffffffffffffffffffffffffffffffffffffffffffff8262000fa4565b62000fef868362000fa4565b95508019841693508086168417925050509392505050565b6000819050919050565b6000819050919050565b60006200103c62001036620010308462001007565b62001011565b62001007565b9050919050565b6000819050919050565b62001058836200101b565b62001070620010678262001043565b84845462000fb1565b825550505050565b600090565b6200108762001078565b620010948184846200104d565b505050565b5b81811015620010bc57620010b06000826200107d565b6001810190506200109a565b5050565b601f8211156200110b57620010d58162000f7f565b620010e08462000f94565b81016020851015620010f0578190505b62001108620010ff8562000f94565b83018262001099565b50505b505050565b600082821c905092915050565b6000620011306000198460080262001110565b1980831691505092915050565b60006200114b83836200111d565b9150826002028217905092915050565b620011668262000ee1565b67ffffffffffffffff81111562001182576200118162000eec565b5b6200118e825462000f4a565b6200119b828285620010c0565b600060209050601f831160018114620011d35760008415620011be578287015190505b620011ca85826200113d565b8655506200123a565b601f198416620011e38662000f7f565b60005b828110156200120d57848901518255600182019150602085019450602081019050620011e6565b868310156200122d578489015162001229601f8916826200111d565b8355505b6001600288020188555050505b505050505050565b6000819050919050565b620012578162001242565b82525050565b620012688162001007565b82525050565b600073ffffffffffffffffffffffffffffffffffffffff82169050919050565b60006200129b826200126e565b9050919050565b620012ad816200128e565b82525050565b600060a082019050620012ca60008301886200124c565b620012d960208301876200124c565b620012e860408301866200124c565b620012f760608301856200125d565b620013066080830184620012a2565b9695505050505050565b600082825260208201905092915050565b7f4552433230566f7465733a20746f74616c20737570706c79207269736b73206f60008201527f766572666c6f77696e6720766f74657300000000000000000000000000000000602082015250565b60006200137f60308362001310565b91506200138c8262001321565b604082019050919050565b60006020820190508181036000830152620013b28162001370565b9050919050565b60005b83811015620013d9578082015181840152602081019050620013bc565b60008484015250505050565b6000601f19601f8301169050919050565b6000620014038262000ee1565b6200140f818562001310565b935062001421818560208601620013b9565b6200142c81620013e5565b840191505092915050565b60006020820190508181036000830152620014538184620013f6565b905092915050565b600081519050919050565b6000819050602082019050919050565b600062001484825162001242565b80915050919050565b60006200149a826200145b565b82620014a68462001466565b9050620014b38162001476565b92506020821015620014f657620014f17fffffffffffffffffffffffffffffffffffffffffffffffffffffffffffffffff8360200360080262000fa4565b831692505b5050919050565b7f45524332303a206d696e7420746f20746865207a65726f206164647265737300600082015250565b600062001535601f8362001310565b91506200154282620014fd565b602082019050919050565b60006020820190508181036000830152620015688162001526565b9050919050565b7f4e487b7100000000000000000000000000000000000000000000000000000000600052601160045260246000fd5b6000620015ab8262001007565b9150620015b88362001007565b9250828201905080821115620015d357620015d26200156f565b5b92915050565b6000602082019050620015f060008301846200125d565b92915050565b7f53616665436173743a2076616c756520646f65736e27742066697420696e203260008201527f3234206269747300000000000000000000000000000000000000000000000000602082015250565b60006200165460278362001310565b91506200166182620015f6565b604082019050919050565b60006020820190508181036000830152620016878162001645565b9050919050565b7f53616665436173743a2076616c756520646f65736e27742066697420696e203360008201527f3220626974730000000000000000000000000000000000000000000000000000602082015250565b6000620016ec60268362001310565b9150620016f9826200168e565b604082019050919050565b600060208201905081810360008301526200171f81620016dd565b9050919050565b60006040820190506200173d60008301856200125d565b6200174c60208301846200125d565b9392505050565b7f53616665436173743a2076616c756520646f65736e27742066697420696e203460008201527f3820626974730000000000000000000000000000000000000000000000000000602082015250565b6000620017b160268362001310565b9150620017be8262001753565b604082019050919050565b60006020820190508181036000830152620017e481620017a2565b9050919050565b6000620017f88262001007565b9150620018058362001007565b925082820390508181111562001820576200181f6200156f565b5b92915050565b60805160a05160c05160e0516101005161012051610140516152bf620018816000396000610d7201526000610d3e015260006125ee015260006125cd01526000611e8801526000611ede01526000611f0701526152bf6000f3fe608060405234801561001057600080fd5b506004361061021c5760003560e01c80636fcfff4511610125578063a217fddf116100ad578063d505accf1161007c578063d505accf146106cb578063d5391393146106e7578063d547741f14610705578063dd62ed3e14610721578063f1127ed8146107515761021c565b8063a217fddf14610631578063a457c2d71461064f578063a9059cbb1461067f578063c3cda520146106af5761021c565b80638e539e8c116100f45780638e539e8c1461056557806391d148541461059557806391ddadf4146105c557806395d89b41146105e35780639ab24eb0146106015761021c565b80636fcfff45146104b157806370a08231146104e15780637ecebe001461051157806384b0196e146105415761021c565b80633644e515116101a857806340c10f191161017757806340c10f191461040f57806342966c681461042b5780634bf5d7e914610447578063587cde1e146104655780635c19a95c146104955761021c565b80633644e5151461037557806336568abe1461039357806339509351146103af5780633a46b1a8146103df5761021c565b806323b872dd116101ef57806323b872dd146102bd578063248a9ca3146102ed578063282c51f31461031d5780632f2ff15d1461033b578063313ce567146103575761021c565b806301ffc9a71461022157806306fdde0314610251578063095ea7b31461026f57806318160ddd1461029f575b600080fd5b61023b60048036038101906102369190613598565b610781565b60405161024891906135e0565b60405180910390f35b6102596107fb565b604051610266919061368b565b60405180910390f35b61028960048036038101906102849190613741565b61088d565b60405161029691906135e0565b60405180910390f35b6102a76108b0565b6040516102b49190613790565b60405180910390f35b6102d760048036038101906102d291906137ab565b6108ba565b6040516102e491906135e0565b60405180910390f35b61030760048036038101906103029190613834565b6108e9565b6040516103149190613870565b60405180910390f35b610325610909565b6040516103329190613870565b60405180910390f35b6103556004803603810190610350919061388b565b61092d565b005b61035f61094e565b60405161036c91906138e7565b60405180910390f35b61037d610957565b60405161038a9190613870565b60405180910390f35b6103ad60048036038101906103a8919061388b565b610966565b005b6103c960048036038101906103c49190613741565b6109e9565b6040516103d691906135e0565b60405180910390f35b6103f960048036038101906103f49190613741565b610a20565b6040516104069190613790565b60405180910390f35b61042960048036038101906104249190613741565b610ac3565b005b61044560048036038101906104409190613902565b610afc565b005b61044f610b34565b60405161045c919061368b565b60405180910390f35b61047f600480360381019061047a919061392f565b610bc2565b60405161048c919061396b565b60405180910390f35b6104af60048036038101906104aa919061392f565b610c2b565b005b6104cb60048036038101906104c6919061392f565b610c3f565b6040516104d891906139a5565b60405180910390f35b6104fb60048036038101906104f6919061392f565b610c93565b6040516105089190613790565b60405180910390f35b61052b6004803603810190610526919061392f565b610cdb565b6040516105389190613790565b60405180910390f35b610549610d2b565b60405161055c9796959493929190613ab9565b60405180910390f35b61057f600480360381019061057a9190613902565b610e2d565b60405161058c9190613790565b60405180910390f35b6105af60048036038101906105aa919061388b565b610e92565b6040516105bc91906135e0565b60405180910390f35b6105cd610efd565b6040516105da9190613b5e565b60405180910390f35b6105eb610f0d565b6040516105f8919061368b565b60405180910390f35b61061b6004803603810190610616919061392f565b610f9f565b6040516106289190613790565b60405180910390f35b6106396110a7565b6040516106469190613870565b60405180910390f35b61066960048036038101906106649190613741565b6110ae565b60405161067691906135e0565b60405180910390f35b61069960048036038101906106949190613741565b611125565b6040516106a691906135e0565b60405180910390f35b6106c960048036038101906106c49190613ba5565b611148565b005b6106e560048036038101906106e09190613c32565b61124c565b005b6106ef61138e565b6040516106fc9190613870565b60405180910390f35b61071f600480360381019061071a919061388b565b6113b2565b005b61073b60048036038101906107369190613cd4565b6113d3565b6040516107489190613790565b60405180910390f35b61076b60048036038101906107669190613d40565b61145a565b6040516107789190613df5565b60405180910390f35b60007f7965db0b000000000000000000000000000000000000000000000000000000007bffffffffffffffffffffffffffffffffffffffffffffffffffffffff1916827bffffffffffffffffffffffffffffffffffffffffffffffffffffffff191614806107f457506107f382611852565b5b9050919050565b60606003805461080a90613e3f565b80601f016020809104026020016040519081016040528092919081815260200182805461083690613e3f565b80156108835780601f1061085857610100808354040283529160200191610883565b820191906000526020600020905b81548152906001019060200180831161086657829003601f168201915b5050505050905090565b6000806108986118bc565b90506108a58185856118c4565b600191505092915050565b6000600254905090565b6000806108c56118bc565b90506108d2858285611a8d565b6108dd858585611b19565b60019150509392505050565b6000600c6000838152602001908152602001600020600101549050919050565b7f3c11d16cbaffd01df69ce1c404f6340ee057498f5f00246190ea54220576a84881565b610936826108e9565b61093f81611d8f565b6109498383611da3565b505050565b60006012905090565b6000610961611e84565b905090565b61096e6118bc565b73ffffffffffffffffffffffffffffffffffffffff168173ffffffffffffffffffffffffffffffffffffffff16146109db576040517f08c379a00000000000000000000000000000000000000000000000000000000081526004016109d290613ee2565b60405180910390fd5b6109e58282611f3b565b5050565b6000806109f46118bc565b9050610a15818585610a0685896113d3565b610a109190613f31565b6118c4565b600191505092915050565b6000610a2a610efd565b65ffffffffffff168210610a73576040517f08c379a0000000000000000000000000000000000000000000000000000000008152600401610a6a90613fb1565b60405180910390fd5b610abb600a60008573ffffffffffffffffffffffffffffffffffffffff1673ffffffffffffffffffffffffffffffffffffffff1681526020019081526020016000208361201d565b905092915050565b7f9f2df0fed2c77648de5860a4cc508cd0818c85b8b8a1ab4ceeef8d981c8956a6610aed81611d8f565b610af78383612165565b505050565b7f3c11d16cbaffd01df69ce1c404f6340ee057498f5f00246190ea54220576a848610b2681611d8f565b610b3033836121f2565b5050565b606043610b3f610efd565b65ffffffffffff1614610b87576040517f08c379a0000000000000000000000000000000000000000000000000000000008152600401610b7e9061401d565b60405180910390fd5b6040518060400160405280601d81526020017f6d6f64653d626c6f636b6e756d6265722666726f6d3d64656661756c74000000815250905090565b6000600960008373ffffffffffffffffffffffffffffffffffffffff1673ffffffffffffffffffffffffffffffffffffffff16815260200190815260200160002060009054906101000a900473ffffffffffffffffffffffffffffffffffffffff169050919050565b610c3c610c366118bc565b82612210565b50565b6000610c8c600a60008473ffffffffffffffffffffffffffffffffffffffff1673ffffffffffffffffffffffffffffffffffffffff1681526020019081526020016000208054905061178f565b9050919050565b60008060008373ffffffffffffffffffffffffffffffffffffffff1673ffffffffffffffffffffffffffffffffffffffff168152602001908152602001600020549050919050565b6000610d24600760008473ffffffffffffffffffffffffffffffffffffffff1673ffffffffffffffffffffffffffffffffffffffff16815260200190815260200160002061232a565b9050919050565b600060608060008060006060610d6b60057f000000000000000000000000000000000000000000000000000000000000000061233890919063ffffffff16565b610d9f60067f000000000000000000000000000000000000000000000000000000000000000061233890919063ffffffff16565b46306000801b600067ffffffffffffffff811115610dc057610dbf61403d565b5b604051908082528060200260200182016040528015610dee5781602001602082028036833780820191505090505b507f0f00000000000000000000000000000000000000000000000000000000000000959493929190965096509650965096509650965090919293949596565b6000610e37610efd565b65ffffffffffff168210610e80576040517f08c379a0000000000000000000000000000000000000000000000000000000008152600401610e7790613fb1565b60405180910390fd5b610e8b600b8361201d565b9050919050565b6000600c600084815260200190815260200160002060000160008373ffffffffffffffffffffffffffffffffffffffff1673ffffffffffffffffffffffffffffffffffffffff16815260200190815260200160002060009054906101000a900460ff16905092915050565b6000610f08436117e7565b905090565b606060048054610f1c90613e3f565b80601f0160208091040260200160405190810160405280929190818152602001828054610f4890613e3f565b8015610f955780601f10610f6a57610100808354040283529160200191610f95565b820191906000526020600020905b815481529060010190602001808311610f7857829003601f168201915b5050505050905090565b600080600a60008473ffffffffffffffffffffffffffffffffffffffff1673ffffffffffffffffffffffffffffffffffffffff1681526020019081526020016000208054905090506000811461107e57600a60008473ffffffffffffffffffffffffffffffffffffffff1673ffffffffffffffffffffffffffffffffffffffff16815260200190815260200160002060018203815481106110435761104261406c565b5b9060005260206000200160000160049054906101000a90047bffffffffffffffffffffffffffffffffffffffffffffffffffffffff16611081565b60005b7bffffffffffffffffffffffffffffffffffffffffffffffffffffffff16915050919050565b6000801b81565b6000806110b96118bc565b905060006110c782866113d3565b90508381101561110c576040517f08c379a00000000000000000000000000000000000000000000000000000000081526004016111039061410d565b60405180910390fd5b61111982868684036118c4565b60019250505092915050565b6000806111306118bc565b905061113d818585611b19565b600191505092915050565b8342111561118b576040517f08c379a000000000000000000000000000000000000000000000000000000000815260040161118290614179565b60405180910390fd5b60006111ed6111e57fe48329057bfd03d55e49b547132e39cffd9c1820ad7b9d4c5307691425d15adf8989896040516020016111ca9493929190614199565b604051602081830303815290604052805190602001206123e8565b858585612402565b90506111f88161242d565b8614611239576040517f08c379a00000000000000000000000000000000000000000000000000000000081526004016112309061422a565b60405180910390fd5b6112438188612210565b50505050505050565b8342111561128f576040517f08c379a000000000000000000000000000000000000000000000000000000000815260040161128690614296565b60405180910390fd5b60007f6e71edae12b1b97f4d1f60370fef10105fa2faae0126114a169c64845d6126c98888886112be8c61242d565b896040516020016112d4969594939291906142b6565b60405160208183030381529060405280519060200120905060006112f7826123e8565b9050600061130782878787612402565b90508973ffffffffffffffffffffffffffffffffffffffff168173ffffffffffffffffffffffffffffffffffffffff1614611377576040517f08c379a000000000000000000000000000000000000000000000000000000000815260040161136e90614363565b60405180910390fd5b6113828a8a8a6118c4565b50505050505050505050565b7f9f2df0fed2c77648de5860a4cc508cd0818c85b8b8a1ab4ceeef8d981c8956a681565b6113bb826108e9565b6113c481611d8f565b6113ce8383611f3b565b505050565b6000600160008473ffffffffffffffffffffffffffffffffffffffff1673ffffffffffffffffffffffffffffffffffffffff16815260200190815260200160002060008373ffffffffffffffffffffffffffffffffffffffff1673ffffffffffffffffffffffffffffffffffffffff16815260200190815260200160002054905092915050565b6114626134fd565b600a60008473ffffffffffffffffffffffffffffffffffffffff1673ffffffffffffffffffffffffffffffffffffffff1681526020019081526020016000208263ffffffff16815481106114b9576114b861406c565b5b906000526020600020016040518060400160405290816000820160009054906101000a900463ffffffff1663ffffffff1663ffffffff1681526020016000820160049054906101000a90047bffffffffffffffffffffffffffffffffffffffffffffffffffffffff167bffffffffffffffffffffffffffffffffffffffffffffffffffffffff167bffffffffffffffffffffffffffffffffffffffffffffffffffffffff1681525050905092915050565b60006020835110156115865761157f8361248b565b90506115a8565b82611590836115ae565b600001908161159f919061452f565b5060ff60001b90505b92915050565b6000819050919050565b600073ffffffffffffffffffffffffffffffffffffffff168273ffffffffffffffffffffffffffffffffffffffff1603611627576040517f08c379a000000000000000000000000000000000000000000000000000000000815260040161161e9061464d565b60405180910390fd5b611633600083836124f3565b80600260008282546116459190613f31565b92505081905550806000808473ffffffffffffffffffffffffffffffffffffffff1673ffffffffffffffffffffffffffffffffffffffff168152602001908152602001600020600082825401925050819055508173ffffffffffffffffffffffffffffffffffffffff16600073ffffffffffffffffffffffffffffffffffffffff167fddf252ad1be2c89b69c2b068fc378daa952ba7f163c4a11628f55a4df523b3ef836040516116f69190613790565b60405180910390a361170a600083836124f8565b5050565b6000818361171c9190613f31565b905092915050565b60007bffffffffffffffffffffffffffffffffffffffffffffffffffffffff8016821115611787576040517f08c379a000000000000000000000000000000000000000000000000000000000815260040161177e906146df565b60405180910390fd5b819050919050565b600063ffffffff80168211156117da576040517f08c379a00000000000000000000000000000000000000000000000000000000081526004016117d190614771565b60405180910390fd5b819050919050565b505050565b600065ffffffffffff8016821115611834576040517f08c379a000000000000000000000000000000000000000000000000000000000815260040161182b90614803565b60405180910390fd5b819050919050565b6000818361184a9190614823565b905092915050565b60007f01ffc9a7000000000000000000000000000000000000000000000000000000007bffffffffffffffffffffffffffffffffffffffffffffffffffffffff1916827bffffffffffffffffffffffffffffffffffffffffffffffffffffffff1916149050919050565b600033905090565b600073ffffffffffffffffffffffffffffffffffffffff168373ffffffffffffffffffffffffffffffffffffffff1603611933576040517f08c379a000000000000000000000000000000000000000000000000000000000815260040161192a906148c9565b60405180910390fd5b600073ffffffffffffffffffffffffffffffffffffffff168273ffffffffffffffffffffffffffffffffffffffff16036119a2576040517f08c379a00000000000000000000000000000000000000000000000000000000081526004016119999061495b565b60405180910390fd5b80600160008573ffffffffffffffffffffffffffffffffffffffff1673ffffffffffffffffffffffffffffffffffffffff16815260200190815260200160002060008473ffffffffffffffffffffffffffffffffffffffff1673ffffffffffffffffffffffffffffffffffffffff168152602001908152602001600020819055508173ffffffffffffffffffffffffffffffffffffffff168373ffffffffffffffffffffffffffffffffffffffff167f8c5be1e5ebec7d5bd14f71427d1e84f3dd0314c0f7b2291e5b200ac8c7c3b92583604051611a809190613790565b60405180910390a3505050565b6000611a9984846113d3565b90507fffffffffffffffffffffffffffffffffffffffffffffffffffffffffffffffff8114611b135781811015611b05576040517f08c379a0000000000000000000000000000000000000000000000000000000008152600401611afc906149c7565b60405180910390fd5b611b1284848484036118c4565b5b50505050565b600073ffffffffffffffffffffffffffffffffffffffff168373ffffffffffffffffffffffffffffffffffffffff1603611b88576040517f08c379a0000000000000000000000000000000000000000000000000000000008152600401611b7f90614a59565b60405180910390fd5b600073ffffffffffffffffffffffffffffffffffffffff168273ffffffffffffffffffffffffffffffffffffffff1603611bf7576040517f08c379a0000000000000000000000000000000000000000000000000000000008152600401611bee90614aeb565b60405180910390fd5b611c028383836124f3565b60008060008573ffffffffffffffffffffffffffffffffffffffff1673ffffffffffffffffffffffffffffffffffffffff16815260200190815260200160002054905081811015611c88576040517f08c379a0000000000000000000000000000000000000000000000000000000008152600401611c7f90614b7d565b60405180910390fd5b8181036000808673ffffffffffffffffffffffffffffffffffffffff1673ffffffffffffffffffffffffffffffffffffffff16815260200190815260200160002081905550816000808573ffffffffffffffffffffffffffffffffffffffff1673ffffffffffffffffffffffffffffffffffffffff168152602001908152602001600020600082825401925050819055508273ffffffffffffffffffffffffffffffffffffffff168473ffffffffffffffffffffffffffffffffffffffff167fddf252ad1be2c89b69c2b068fc378daa952ba7f163c4a11628f55a4df523b3ef84604051611d769190613790565b60405180910390a3611d898484846124f8565b50505050565b611da081611d9b6118bc565b612523565b50565b611dad8282610e92565b611e80576001600c600084815260200190815260200160002060000160008373ffffffffffffffffffffffffffffffffffffffff1673ffffffffffffffffffffffffffffffffffffffff16815260200190815260200160002060006101000a81548160ff021916908315150217905550611e256118bc565b73ffffffffffffffffffffffffffffffffffffffff168173ffffffffffffffffffffffffffffffffffffffff16837f2f8788117e7eff1d82e926ec794901d17c78024a50270940304540a733656f0d60405160405180910390a45b5050565b60007f000000000000000000000000000000000000000000000000000000000000000073ffffffffffffffffffffffffffffffffffffffff163073ffffffffffffffffffffffffffffffffffffffff16148015611f0057507f000000000000000000000000000000000000000000000000000000000000000046145b15611f2d577f00000000000000000000000000000000000000000000000000000000000000009050611f38565b611f356125a8565b90505b90565b611f458282610e92565b15612019576000600c600084815260200190815260200160002060000160008373ffffffffffffffffffffffffffffffffffffffff1673ffffffffffffffffffffffffffffffffffffffff16815260200190815260200160002060006101000a81548160ff021916908315150217905550611fbe6118bc565b73ffffffffffffffffffffffffffffffffffffffff168173ffffffffffffffffffffffffffffffffffffffff16837ff6391f5c32d9c69d2a47ea670b442974b53935d1edc7fd64eb21e047a839171b60405160405180910390a45b5050565b6000808380549050905060008082905060058311156120935760006120418461263e565b8461204c9190614823565b9050856120598883612737565b60000160009054906101000a900463ffffffff1663ffffffff16111561208157809150612091565b60018161208e9190613f31565b92505b505b5b808210156120f35760006120a8838361274c565b9050856120b58883612737565b60000160009054906101000a900463ffffffff1663ffffffff1611156120dd578091506120ed565b6001816120ea9190613f31565b92505b50612094565b60008114612139576121088660018303612737565b60000160049054906101000a90047bffffffffffffffffffffffffffffffffffffffffffffffffffffffff1661213c565b60005b7bffffffffffffffffffffffffffffffffffffffffffffffffffffffff16935050505092915050565b61216f82826115b8565b612177612772565b7bffffffffffffffffffffffffffffffffffffffffffffffffffffffff1661219d6108b0565b11156121de576040517f08c379a00000000000000000000000000000000000000000000000000000000081526004016121d590614c0f565b60405180910390fd5b6121ec600b61170e83612796565b50505050565b6121fc8282612a71565b61220a600b61183c83612796565b50505050565b600061221b83610bc2565b9050600061222884610c93565b905082600960008673ffffffffffffffffffffffffffffffffffffffff1673ffffffffffffffffffffffffffffffffffffffff16815260200190815260200160002060006101000a81548173ffffffffffffffffffffffffffffffffffffffff021916908373ffffffffffffffffffffffffffffffffffffffff1602179055508273ffffffffffffffffffffffffffffffffffffffff168273ffffffffffffffffffffffffffffffffffffffff168573ffffffffffffffffffffffffffffffffffffffff167f3134e8a2e6d97e929a7e54011ea5485d7d196dd5f0ba4d4ef95803e8e3fc257f60405160405180910390a4612324828483612c3e565b50505050565b600081600001549050919050565b606060ff60001b83146123555761234e83612e37565b90506123e2565b81805461236190613e3f565b80601f016020809104026020016040519081016040528092919081815260200182805461238d90613e3f565b80156123da5780601f106123af576101008083540402835291602001916123da565b820191906000526020600020905b8154815290600101906020018083116123bd57829003601f168201915b505050505090505b92915050565b60006123fb6123f5611e84565b83612eab565b9050919050565b600080600061241387878787612eec565b9150915061242081612fce565b8192505050949350505050565b600080600760008473ffffffffffffffffffffffffffffffffffffffff1673ffffffffffffffffffffffffffffffffffffffff168152602001908152602001600020905061247a8161232a565b915061248581613134565b50919050565b600080829050601f815111156124d857826040517f305a27a90000000000000000000000000000000000000000000000000000000081526004016124cf919061368b565b60405180910390fd5b8051816124e490614c5f565b60001c1760001b915050919050565b505050565b6125038383836117e2565b61251e61250f84610bc2565b61251884610bc2565b83612c3e565b505050565b61252d8282610e92565b6125a45761253a8161314a565b6125488360001c6020613177565b604051602001612559929190614d9a565b6040516020818303038152906040526040517f08c379a000000000000000000000000000000000000000000000000000000000815260040161259b919061368b565b60405180910390fd5b5050565b60007f8b73c3c69bb8fe3d512ecc4cf759cc79239f7b179b0ffacaa9a75d522b39400f7f00000000000000000000000000000000000000000000000000000000000000007f00000000000000000000000000000000000000000000000000000000000000004630604051602001612623959493929190614dd4565b60405160208183030381529060405280519060200120905090565b60008082036126505760009050612732565b6000600161265d846133b3565b901c6001901b9050600181848161267757612676614e27565b5b048201901c905060018184816126905761268f614e27565b5b048201901c905060018184816126a9576126a8614e27565b5b048201901c905060018184816126c2576126c1614e27565b5b048201901c905060018184816126db576126da614e27565b5b048201901c905060018184816126f4576126f3614e27565b5b048201901c9050600181848161270d5761270c614e27565b5b048201901c905061272e8182858161272857612727614e27565b5b04613494565b9150505b919050565b60008260005281602060002001905092915050565b6000600282841861275d9190614e56565b82841661276a9190613f31565b905092915050565b60007bffffffffffffffffffffffffffffffffffffffffffffffffffffffff905090565b600080600085805490509050600080821461285c576127b88760018403612737565b6040518060400160405290816000820160009054906101000a900463ffffffff1663ffffffff1663ffffffff1681526020016000820160049054906101000a90047bffffffffffffffffffffffffffffffffffffffffffffffffffffffff167bffffffffffffffffffffffffffffffffffffffffffffffffffffffff167bffffffffffffffffffffffffffffffffffffffffffffffffffffffff1681525050612898565b6040518060400160405280600063ffffffff16815260200160007bffffffffffffffffffffffffffffffffffffffffffffffffffffffff168152505b905080602001517bffffffffffffffffffffffffffffffffffffffffffffffffffffffff1693506128cd84868863ffffffff16565b92506000821180156128f757506128e2610efd565b65ffffffffffff16816000015163ffffffff16145b156129685761290583611724565b6129128860018503612737565b60000160046101000a8154817bffffffffffffffffffffffffffffffffffffffffffffffffffffffff02191690837bffffffffffffffffffffffffffffffffffffffffffffffffffffffff160217905550612a67565b86604051806040016040528061298c61297f610efd565b65ffffffffffff1661178f565b63ffffffff1681526020016129a086611724565b7bffffffffffffffffffffffffffffffffffffffffffffffffffffffff168152509080600181540180825580915050600190039060005260206000200160009091909190915060008201518160000160006101000a81548163ffffffff021916908363ffffffff16021790555060208201518160000160046101000a8154817bffffffffffffffffffffffffffffffffffffffffffffffffffffffff02191690837bffffffffffffffffffffffffffffffffffffffffffffffffffffffff16021790555050505b5050935093915050565b600073ffffffffffffffffffffffffffffffffffffffff168273ffffffffffffffffffffffffffffffffffffffff1603612ae0576040517f08c379a0000000000000000000000000000000000000000000000000000000008152600401612ad790614ef9565b60405180910390fd5b612aec826000836124f3565b60008060008473ffffffffffffffffffffffffffffffffffffffff1673ffffffffffffffffffffffffffffffffffffffff16815260200190815260200160002054905081811015612b72576040517f08c379a0000000000000000000000000000000000000000000000000000000008152600401612b6990614f8b565b60405180910390fd5b8181036000808573ffffffffffffffffffffffffffffffffffffffff1673ffffffffffffffffffffffffffffffffffffffff1681526020019081526020016000208190555081600260008282540392505081905550600073ffffffffffffffffffffffffffffffffffffffff168373ffffffffffffffffffffffffffffffffffffffff167fddf252ad1be2c89b69c2b068fc378daa952ba7f163c4a11628f55a4df523b3ef84604051612c259190613790565b60405180910390a3612c39836000846124f8565b505050565b8173ffffffffffffffffffffffffffffffffffffffff168373ffffffffffffffffffffffffffffffffffffffff1614158015612c7a5750600081115b15612e3257600073ffffffffffffffffffffffffffffffffffffffff168373ffffffffffffffffffffffffffffffffffffffff1614612d5857600080612d01600a60008773ffffffffffffffffffffffffffffffffffffffff1673ffffffffffffffffffffffffffffffffffffffff16815260200190815260200160002061183c85612796565b915091508473ffffffffffffffffffffffffffffffffffffffff167fdec2bacdd2f05b59de34da9b523dff8be42e5e38e818c82fdb0bae774387a7248383604051612d4d929190614fab565b60405180910390a250505b600073ffffffffffffffffffffffffffffffffffffffff168273ffffffffffffffffffffffffffffffffffffffff1614612e3157600080612dda600a60008673ffffffffffffffffffffffffffffffffffffffff1673ffffffffffffffffffffffffffffffffffffffff16815260200190815260200160002061170e85612796565b915091508373ffffffffffffffffffffffffffffffffffffffff167fdec2bacdd2f05b59de34da9b523dff8be42e5e38e818c82fdb0bae774387a7248383604051612e26929190614fab565b60405180910390a250505b5b505050565b60606000612e44836134ad565b90506000602067ffffffffffffffff811115612e6357612e6261403d565b5b6040519080825280601f01601f191660200182016040528015612e955781602001600182028036833780820191505090505b5090508181528360208201528092505050919050565b60006040517f190100000000000000000000000000000000000000000000000000000000000081528360028201528260228201526042812091505092915050565b6000807f7fffffffffffffffffffffffffffffff5d576e7357a4501ddfe92f46681b20a08360001c1115612f27576000600391509150612fc5565b600060018787878760405160008152602001604052604051612f4c9493929190614fd4565b6020604051602081039080840390855afa158015612f6e573d6000803e3d6000fd5b505050602060405103519050600073ffffffffffffffffffffffffffffffffffffffff168173ffffffffffffffffffffffffffffffffffffffff1603612fbc57600060019250925050612fc5565b80600092509250505b94509492505050565b60006004811115612fe257612fe1615019565b5b816004811115612ff557612ff4615019565b5b0315613131576001600481111561300f5761300e615019565b5b81600481111561302257613021615019565b5b03613062576040517f08c379a000000000000000000000000000000000000000000000000000000000815260040161305990615094565b60405180910390fd5b6002600481111561307657613075615019565b5b81600481111561308957613088615019565b5b036130c9576040517f08c379a00000000000000000000000000000000000000000000000000000000081526004016130c090615100565b60405180910390fd5b600360048111156130dd576130dc615019565b5b8160048111156130f0576130ef615019565b5b03613130576040517f08c379a000000000000000000000000000000000000000000000000000000000815260040161312790615192565b60405180910390fd5b5b50565b6001816000016000828254019250508190555050565b60606131708273ffffffffffffffffffffffffffffffffffffffff16601460ff16613177565b9050919050565b60606000600283600261318a91906151b2565b6131949190613f31565b67ffffffffffffffff8111156131ad576131ac61403d565b5b6040519080825280601f01601f1916602001820160405280156131df5781602001600182028036833780820191505090505b5090507f3000000000000000000000000000000000000000000000000000000000000000816000815181106132175761321661406c565b5b60200101907effffffffffffffffffffffffffffffffffffffffffffffffffffffffffffff1916908160001a9053507f78000000000000000000000000000000000000000000000000000000000000008160018151811061327b5761327a61406c565b5b60200101907effffffffffffffffffffffffffffffffffffffffffffffffffffffffffffff1916908160001a905350600060018460026132bb91906151b2565b6132c59190613f31565b90505b6001811115613365577f3031323334353637383961626364656600000000000000000000000000000000600f8616601081106133075761330661406c565b5b1a60f81b82828151811061331e5761331d61406c565b5b60200101907effffffffffffffffffffffffffffffffffffffffffffffffffffffffffffff1916908160001a905350600485901c94508061335e906151f4565b90506132c8565b50600084146133a9576040517f08c379a00000000000000000000000000000000000000000000000000000000081526004016133a090615269565b60405180910390fd5b8091505092915050565b600080600090506000608084901c11156133d557608083901c92506080810190505b6000604084901c11156133f057604083901c92506040810190505b6000602084901c111561340b57602083901c92506020810190505b6000601084901c111561342657601083901c92506010810190505b6000600884901c111561344157600883901c92506008810190505b6000600484901c111561345c57600483901c92506004810190505b6000600284901c111561347757600283901c92506002810190505b6000600184901c111561348b576001810190505b80915050919050565b60008183106134a357816134a5565b825b905092915050565b60008060ff8360001c169050601f8111156134f4576040517fb3512b0c00000000000000000000000000000000000000000000000000000000815260040160405180910390fd5b80915050919050565b6040518060400160405280600063ffffffff16815260200160007bffffffffffffffffffffffffffffffffffffffffffffffffffffffff1681525090565b600080fd5b60007fffffffff0000000000000000000000000000000000000000000000000000000082169050919050565b61357581613540565b811461358057600080fd5b50565b6000813590506135928161356c565b92915050565b6000602082840312156135ae576135ad61353b565b5b60006135bc84828501613583565b91505092915050565b60008115159050919050565b6135da816135c5565b82525050565b60006020820190506135f560008301846135d1565b92915050565b600081519050919050565b600082825260208201905092915050565b60005b8381101561363557808201518184015260208101905061361a565b60008484015250505050565b6000601f19601f8301169050919050565b600061365d826135fb565b6136678185613606565b9350613677818560208601613617565b61368081613641565b840191505092915050565b600060208201905081810360008301526136a58184613652565b905092915050565b600073ffffffffffffffffffffffffffffffffffffffff82169050919050565b60006136d8826136ad565b9050919050565b6136e8816136cd565b81146136f357600080fd5b50565b600081359050613705816136df565b92915050565b6000819050919050565b61371e8161370b565b811461372957600080fd5b50565b60008135905061373b81613715565b92915050565b600080604083850312156137585761375761353b565b5b6000613766858286016136f6565b92505060206137778582860161372c565b9150509250929050565b61378a8161370b565b82525050565b60006020820190506137a56000830184613781565b92915050565b6000806000606084860312156137c4576137c361353b565b5b60006137d2868287016136f6565b93505060206137e3868287016136f6565b92505060406137f48682870161372c565b9150509250925092565b6000819050919050565b613811816137fe565b811461381c57600080fd5b50565b60008135905061382e81613808565b92915050565b60006020828403121561384a5761384961353b565b5b60006138588482850161381f565b91505092915050565b61386a816137fe565b82525050565b60006020820190506138856000830184613861565b92915050565b600080604083850312156138a2576138a161353b565b5b60006138b08582860161381f565b92505060206138c1858286016136f6565b9150509250929050565b600060ff82169050919050565b6138e1816138cb565b82525050565b60006020820190506138fc60008301846138d8565b92915050565b6000602082840312156139185761391761353b565b5b60006139268482850161372c565b91505092915050565b6000602082840312156139455761394461353b565b5b6000613953848285016136f6565b91505092915050565b613965816136cd565b82525050565b6000602082019050613980600083018461395c565b92915050565b600063ffffffff82169050919050565b61399f81613986565b82525050565b60006020820190506139ba6000830184613996565b92915050565b60007fff0000000000000000000000000000000000000000000000000000000000000082169050919050565b6139f5816139c0565b82525050565b600081519050919050565b600082825260208201905092915050565b6000819050602082019050919050565b613a308161370b565b82525050565b6000613a428383613a27565b60208301905092915050565b6000602082019050919050565b6000613a66826139fb565b613a708185613a06565b9350613a7b83613a17565b8060005b83811015613aac578151613a938882613a36565b9750613a9e83613a4e565b925050600181019050613a7f565b5085935050505092915050565b600060e082019050613ace600083018a6139ec565b8181036020830152613ae08189613652565b90508181036040830152613af48188613652565b9050613b036060830187613781565b613b10608083018661395c565b613b1d60a0830185613861565b81810360c0830152613b2f8184613a5b565b905098975050505050505050565b600065ffffffffffff82169050919050565b613b5881613b3d565b82525050565b6000602082019050613b736000830184613b4f565b92915050565b613b82816138cb565b8114613b8d57600080fd5b50565b600081359050613b9f81613b79565b92915050565b60008060008060008060c08789031215613bc257613bc161353b565b5b6000613bd089828a016136f6565b9650506020613be189828a0161372c565b9550506040613bf289828a0161372c565b9450506060613c0389828a01613b90565b9350506080613c1489828a0161381f565b92505060a0613c2589828a0161381f565b9150509295509295509295565b600080600080600080600060e0888a031215613c5157613c5061353b565b5b6000613c5f8a828b016136f6565b9750506020613c708a828b016136f6565b9650506040613c818a828b0161372c565b9550506060613c928a828b0161372c565b9450506080613ca38a828b01613b90565b93505060a0613cb48a828b0161381f565b92505060c0613cc58a828b0161381f565b91505092959891949750929550565b60008060408385031215613ceb57613cea61353b565b5b6000613cf9858286016136f6565b9250506020613d0a858286016136f6565b9150509250929050565b613d1d81613986565b8114613d2857600080fd5b50565b600081359050613d3a81613d14565b92915050565b60008060408385031215613d5757613d5661353b565b5b6000613d65858286016136f6565b9250506020613d7685828601613d2b565b9150509250929050565b613d8981613986565b82525050565b60007bffffffffffffffffffffffffffffffffffffffffffffffffffffffff82169050919050565b613dc081613d8f565b82525050565b604082016000820151613ddc6000850182613d80565b506020820151613def6020850182613db7565b50505050565b6000604082019050613e0a6000830184613dc6565b92915050565b7f4e487b7100000000000000000000000000000000000000000000000000000000600052602260045260246000fd5b60006002820490506001821680613e5757607f821691505b602082108103613e6a57613e69613e10565b5b50919050565b7f416363657373436f6e74726f6c3a2063616e206f6e6c792072656e6f756e636560008201527f20726f6c657320666f722073656c660000000000000000000000000000000000602082015250565b6000613ecc602f83613606565b9150613ed782613e70565b604082019050919050565b60006020820190508181036000830152613efb81613ebf565b9050919050565b7f4e487b7100000000000000000000000000000000000000000000000000000000600052601160045260246000fd5b6000613f3c8261370b565b9150613f478361370b565b9250828201905080821115613f5f57613f5e613f02565b5b92915050565b7f4552433230566f7465733a20667574757265206c6f6f6b757000000000000000600082015250565b6000613f9b601983613606565b9150613fa682613f65565b602082019050919050565b60006020820190508181036000830152613fca81613f8e565b9050919050565b7f4552433230566f7465733a2062726f6b656e20636c6f636b206d6f6465000000600082015250565b6000614007601d83613606565b915061401282613fd1565b602082019050919050565b6000602082019050818103600083015261403681613ffa565b9050919050565b7f4e487b7100000000000000000000000000000000000000000000000000000000600052604160045260246000fd5b7f4e487b7100000000000000000000000000000000000000000000000000000000600052603260045260246000fd5b7f45524332303a2064656372656173656420616c6c6f77616e63652062656c6f7760008201527f207a65726f000000000000000000000000000000000000000000000000000000602082015250565b60006140f7602583613606565b91506141028261409b565b604082019050919050565b60006020820190508181036000830152614126816140ea565b9050919050565b7f4552433230566f7465733a207369676e61747572652065787069726564000000600082015250565b6000614163601d83613606565b915061416e8261412d565b602082019050919050565b6000602082019050818103600083015261419281614156565b9050919050565b60006080820190506141ae6000830187613861565b6141bb602083018661395c565b6141c86040830185613781565b6141d56060830184613781565b95945050505050565b7f4552433230566f7465733a20696e76616c6964206e6f6e636500000000000000600082015250565b6000614214601983613606565b915061421f826141de565b602082019050919050565b6000602082019050818103600083015261424381614207565b9050919050565b7f45524332305065726d69743a206578706972656420646561646c696e65000000600082015250565b6000614280601d83613606565b915061428b8261424a565b602082019050919050565b600060208201905081810360008301526142af81614273565b9050919050565b600060c0820190506142cb6000830189613861565b6142d8602083018861395c565b6142e5604083018761395c565b6142f26060830186613781565b6142ff6080830185613781565b61430c60a0830184613781565b979650505050505050565b7f45524332305065726d69743a20696e76616c6964207369676e61747572650000600082015250565b600061434d601e83613606565b915061435882614317565b602082019050919050565b6000602082019050818103600083015261437c81614340565b9050919050565b60008190508160005260206000209050919050565b60006020601f8301049050919050565b600082821b905092915050565b6000600883026143e57fffffffffffffffffffffffffffffffffffffffffffffffffffffffffffffffff826143a8565b6143ef86836143a8565b95508019841693508086168417925050509392505050565b6000819050919050565b600061442c6144276144228461370b565b614407565b61370b565b9050919050565b6000819050919050565b61444683614411565b61445a61445282614433565b8484546143b5565b825550505050565b600090565b61446f614462565b61447a81848461443d565b505050565b5b8181101561449e57614493600082614467565b600181019050614480565b5050565b601f8211156144e3576144b481614383565b6144bd84614398565b810160208510156144cc578190505b6144e06144d885614398565b83018261447f565b50505b505050565b600082821c905092915050565b6000614506600019846008026144e8565b1980831691505092915050565b600061451f83836144f5565b9150826002028217905092915050565b614538826135fb565b67ffffffffffffffff8111156145515761455061403d565b5b61455b8254613e3f565b6145668282856144a2565b600060209050601f8311600181146145995760008415614587578287015190505b6145918582614513565b8655506145f9565b601f1984166145a786614383565b60005b828110156145cf578489015182556001820191506020850194506020810190506145aa565b868310156145ec57848901516145e8601f8916826144f5565b8355505b6001600288020188555050505b505050505050565b7f45524332303a206d696e7420746f20746865207a65726f206164647265737300600082015250565b6000614637601f83613606565b915061464282614601565b602082019050919050565b600060208201905081810360008301526146668161462a565b9050919050565b7f53616665436173743a2076616c756520646f65736e27742066697420696e203260008201527f3234206269747300000000000000000000000000000000000000000000000000602082015250565b60006146c9602783613606565b91506146d48261466d565b604082019050919050565b600060208201905081810360008301526146f8816146bc565b9050919050565b7f53616665436173743a2076616c756520646f65736e27742066697420696e203360008201527f3220626974730000000000000000000000000000000000000000000000000000602082015250565b600061475b602683613606565b9150614766826146ff565b604082019050919050565b6000602082019050818103600083015261478a8161474e565b9050919050565b7f53616665436173743a2076616c756520646f65736e27742066697420696e203460008201527f3820626974730000000000000000000000000000000000000000000000000000602082015250565b60006147ed602683613606565b91506147f882614791565b604082019050919050565b6000602082019050818103600083015261481c816147e0565b9050919050565b600061482e8261370b565b91506148398361370b565b925082820390508181111561485157614850613f02565b5b92915050565b7f45524332303a20617070726f76652066726f6d20746865207a65726f2061646460008201527f7265737300000000000000000000000000000000000000000000000000000000602082015250565b60006148b3602483613606565b91506148be82614857565b604082019050919050565b600060208201905081810360008301526148e2816148a6565b9050919050565b7f45524332303a20617070726f766520746f20746865207a65726f20616464726560008201527f7373000000000000000000000000000000000000000000000000000000000000602082015250565b6000614945602283613606565b9150614950826148e9565b604082019050919050565b6000602082019050818103600083015261497481614938565b9050919050565b7f45524332303a20696e73756666696369656e7420616c6c6f77616e6365000000600082015250565b60006149b1601d83613606565b91506149bc8261497b565b602082019050919050565b600060208201905081810360008301526149e0816149a4565b9050919050565b7f45524332303a207472616e736665722066726f6d20746865207a65726f20616460008201527f6472657373000000000000000000000000000000000000000000000000000000602082015250565b6000614a43602583613606565b9150614a4e826149e7565b604082019050919050565b60006020820190508181036000830152614a7281614a36565b9050919050565b7f45524332303a207472616e7366657220746f20746865207a65726f206164647260008201527f6573730000000000000000000000000000000000000000000000000000000000602082015250565b6000614ad5602383613606565b9150614ae082614a79565b604082019050919050565b60006020820190508181036000830152614b0481614ac8565b9050919050565b7f45524332303a207472616e7366657220616d6f756e742065786365656473206260008201527f616c616e63650000000000000000000000000000000000000000000000000000602082015250565b6000614b67602683613606565b9150614b7282614b0b565b604082019050919050565b60006020820190508181036000830152614b9681614b5a565b9050919050565b7f4552433230566f7465733a20746f74616c20737570706c79207269736b73206f60008201527f766572666c6f77696e6720766f74657300000000000000000000000000000000602082015250565b6000614bf9603083613606565b9150614c0482614b9d565b604082019050919050565b60006020820190508181036000830152614c2881614bec565b9050919050565b600081519050919050565b6000819050602082019050919050565b6000614c5682516137fe565b80915050919050565b6000614c6a82614c2f565b82614c7484614c3a565b9050614c7f81614c4a565b92506020821015614cbf57614cba7fffffffffffffffffffffffffffffffffffffffffffffffffffffffffffffffff836020036008026143a8565b831692505b5050919050565b600081905092915050565b7f416363657373436f6e74726f6c3a206163636f756e7420000000000000000000600082015250565b6000614d07601783614cc6565b9150614d1282614cd1565b601782019050919050565b6000614d28826135fb565b614d328185614cc6565b9350614d42818560208601613617565b80840191505092915050565b7f206973206d697373696e6720726f6c6520000000000000000000000000000000600082015250565b6000614d84601183614cc6565b9150614d8f82614d4e565b601182019050919050565b6000614da582614cfa565b9150614db18285614d1d565b9150614dbc82614d77565b9150614dc88284614d1d565b91508190509392505050565b600060a082019050614de96000830188613861565b614df66020830187613861565b614e036040830186613861565b614e106060830185613781565b614e1d608083018461395c565b9695505050505050565b7f4e487b7100000000000000000000000000000000000000000000000000000000600052601260045260246000fd5b6000614e618261370b565b9150614e6c8361370b565b925082614e7c57614e7b614e27565b5b828204905092915050565b7f45524332303a206275726e2066726f6d20746865207a65726f2061646472657360008201527f7300000000000000000000000000000000000000000000000000000000000000602082015250565b6000614ee3602183613606565b9150614eee82614e87565b604082019050919050565b60006020820190508181036000830152614f1281614ed6565b9050919050565b7f45524332303a206275726e20616d6f756e7420657863656564732062616c616e60008201527f6365000000000000000000000000000000000000000000000000000000000000602082015250565b6000614f75602283613606565b9150614f8082614f19565b604082019050919050565b60006020820190508181036000830152614fa481614f68565b9050919050565b6000604082019050614fc06000830185613781565b614fcd6020830184613781565b9392505050565b6000608082019050614fe96000830187613861565b614ff660208301866138d8565b6150036040830185613861565b6150106060830184613861565b95945050505050565b7f4e487b7100000000000000000000000000000000000000000000000000000000600052602160045260246000fd5b7f45434453413a20696e76616c6964207369676e61747572650000000000000000600082015250565b600061507e601883613606565b915061508982615048565b602082019050919050565b600060208201905081810360008301526150ad81615071565b9050919050565b7f45434453413a20696e76616c6964207369676e6174757265206c656e67746800600082015250565b60006150ea601f83613606565b91506150f5826150b4565b602082019050919050565b60006020820190508181036000830152615119816150dd565b9050919050565b7f45434453413a20696e76616c6964207369676e6174757265202773272076616c60008201527f7565000000000000000000000000000000000000000000000000000000000000602082015250565b600061517c602283613606565b915061518782615120565b604082019050919050565b600060208201905081810360008301526151ab8161516f565b9050919050565b60006151bd8261370b565b91506151c88361370b565b92508282026151d68161370b565b915082820484148315176151ed576151ec613f02565b5b5092915050565b60006151ff8261370b565b91506000820361521257615211613f02565b5b600182039050919050565b7f537472696e67733a20686578206c656e67746820696e73756666696369656e74600082015250565b6000615253602083613606565b915061525e8261521d565b602082019050919050565b6000602082019050818103600083015261528281615246565b905091905056fea2646970667358221220aae53c12ab6a677e586abca8dc0456f94aae6b4d9dadc8ed7a0bcfc32f7aba5564736f6c63430008110033",
  "linkReferences": {},
  "deployedLinkReferences": {}
}