{
  "_format": "hh-sol-artifact-1",
  "contractName": "ProposalSystem",
  "sourceName": "contracts/governance/ProposalSystem.sol",
  "abi": [
    {
      "inputs": [
        {
          "internalType": "contract IERC20",
          "name": "_token",
          "type": "address"
        },
        {
          "internalType": "address",
          "name": "_treasury",
          "type": "address"
        },
        {
          "internalType": "uint256",
          "name": "_quorumPercentage",
          "type": "uint256"
        },
        {
          "internalType": "uint256",
          "name": "_votingPeriod",
          "type": "uint256"
        },
        {
          "internalType": "uint256",
          "name": "_votingDelay",
          "type": "uint256"
        },
        {
          "internalType": "uint256",
          "name": "_proposalThreshold",
          "type": "uint256"
        }
      ],
      "stateMutability": "nonpayable",
      "type": "constructor"
    },
    {
      "anonymous": false,
      "inputs": [
        {
          "indexed": true,
          "internalType": "address",
          "name": "previousOwner",
          "type": "address"
        },
        {
          "indexed": true,
          "internalType": "address",
          "name": "newOwner",
          "type": "address"
        }
      ],
      "name": "OwnershipTransferred",
      "type": "event"
    },
    {
      "anonymous": false,
      "inputs": [
        {
          "indexed": false,
          "internalType": "uint256",
          "name": "proposalId",
          "type": "uint256"
        }
      ],
      "name": "ProposalCanceled",
      "type": "event"
    },
    {
      "anonymous": false,
      "inputs": [
        {
          "indexed": false,
          "internalType": "uint256",
          "name": "proposalId",
          "type": "uint256"
        },
        {
          "indexed": false,
          "internalType": "address",
          "name": "proposer",
          "type": "address"
        },
        {
          "indexed": false,
          "internalType": "uint256",
          "name": "startBlock",
          "type": "uint256"
        },
        {
          "indexed": false,
          "internalType": "uint256",
          "name": "endBlock",
          "type": "uint256"
        },
        {
          "indexed": false,
          "internalType": "string",
          "name": "description",
          "type": "string"
        }
      ],
      "name": "ProposalCreated",
      "type": "event"
    },
    {
      "anonymous": false,
      "inputs": [
        {
          "indexed": false,
          "internalType": "uint256",
          "name": "proposalId",
          "type": "uint256"
        }
      ],
      "name": "ProposalExecuted",
      "type": "event"
    },
    {
      "anonymous": false,
      "inputs": [
        {
          "indexed": false,
          "internalType": "address",
          "name": "voter",
          "type": "address"
        },
        {
          "indexed": false,
          "internalType": "uint256",
          "name": "proposalId",
          "type": "uint256"
        },
        {
          "indexed": false,
          "internalType": "uint8",
          "name": "support",
          "type": "uint8"
        },
        {
          "indexed": false,
          "internalType": "uint256",
          "name": "weight",
          "type": "uint256"
        }
      ],
      "name": "VoteCast",
      "type": "event"
    },
    {
      "inputs": [
        {
          "internalType": "address[]",
          "name": "targets",
          "type": "address[]"
        },
        {
          "internalType": "uint256[]",
          "name": "values",
          "type": "uint256[]"
        },
        {
          "internalType": "bytes[]",
          "name": "calldatas",
          "type": "bytes[]"
        },
        {
          "internalType": "bytes32",
          "name": "descriptionHash",
          "type": "bytes32"
        }
      ],
      "name": "cancel",
      "outputs": [
        {
          "internalType": "uint256",
          "name": "",
          "type": "uint256"
        }
      ],
      "stateMutability": "nonpayable",
      "type": "function"
    },
    {
      "inputs": [
        {
          "internalType": "uint256",
          "name": "proposalId",
          "type": "uint256"
        },
        {
          "internalType": "uint8",
          "name": "support",
          "type": "uint8"
        }
      ],
      "name": "castVote",
      "outputs": [
        {
          "internalType": "uint256",
          "name": "",
          "type": "uint256"
        }
      ],
      "stateMutability": "nonpayable",
      "type": "function"
    },
    {
      "inputs": [
        {
          "internalType": "address[]",
          "name": "targets",
          "type": "address[]"
        },
        {
          "internalType": "uint256[]",
          "name": "values",
          "type": "uint256[]"
        },
        {
          "internalType": "bytes[]",
          "name": "calldatas",
          "type": "bytes[]"
        },
        {
          "internalType": "bytes32",
          "name": "descriptionHash",
          "type": "bytes32"
        }
      ],
      "name": "execute",
      "outputs": [
        {
          "internalType": "uint256",
          "name": "",
          "type": "uint256"
        }
      ],
      "stateMutability": "nonpayable",
      "type": "function"
    },
    {
      "inputs": [
        {
          "internalType": "address[]",
          "name": "targets",
          "type": "address[]"
        },
        {
          "internalType": "uint256[]",
          "name": "values",
          "type": "uint256[]"
        },
        {
          "internalType": "bytes[]",
          "name": "calldatas",
          "type": "bytes[]"
        },
        {
          "internalType": "bytes32",
          "name": "descriptionHash",
          "type": "bytes32"
        }
      ],
      "name": "hashProposal",
      "outputs": [
        {
          "internalType": "uint256",
          "name": "",
          "type": "uint256"
        }
      ],
      "stateMutability": "pure",
      "type": "function"
    },
    {
      "inputs": [],
      "name": "owner",
      "outputs": [
        {
          "internalType": "address",
          "name": "",
          "type": "address"
        }
      ],
      "stateMutability": "view",
      "type": "function"
    },
    {
      "inputs": [],
      "name": "proposalCount",
      "outputs": [
        {
          "internalType": "uint256",
          "name": "",
          "type": "uint256"
        }
      ],
      "stateMutability": "view",
      "type": "function"
    },
    {
      "inputs": [],
      "name": "proposalThreshold",
      "outputs": [
        {
          "internalType": "uint256",
          "name": "",
          "type": "uint256"
        }
      ],
      "stateMutability": "view",
      "type": "function"
    },
    {
      "inputs": [
        {
          "internalType": "uint256",
          "name": "",
          "type": "uint256"
        }
      ],
      "name": "proposals",
      "outputs": [
        {
          "internalType": "uint256",
          "name": "id",
          "type": "uint256"
        },
        {
          "internalType": "address",
          "name": "proposer",
          "type": "address"
        },
        {
          "internalType": "uint256",
          "name": "startBlock",
          "type": "uint256"
        },
        {
          "internalType": "uint256",
          "name": "endBlock",
          "type": "uint256"
        },
        {
          "internalType": "string",
          "name": "description",
          "type": "string"
        },
        {
          "internalType": "uint256",
          "name": "forVotes",
          "type": "uint256"
        },
        {
          "internalType": "uint256",
          "name": "againstVotes",
          "type": "uint256"
        },
        {
          "internalType": "bool",
          "name": "executed",
          "type": "bool"
        },
        {
          "internalType": "bool",
          "name": "canceled",
          "type": "bool"
        }
      ],
      "stateMutability": "view",
      "type": "function"
    },
    {
      "inputs": [
        {
          "internalType": "address[]",
          "name": "targets",
          "type": "address[]"
        },
        {
          "internalType": "uint256[]",
          "name": "values",
          "type": "uint256[]"
        },
        {
          "internalType": "bytes[]",
          "name": "calldatas",
          "type": "bytes[]"
        },
        {
          "internalType": "string",
          "name": "description",
          "type": "string"
        }
      ],
      "name": "propose",
      "outputs": [
        {
          "internalType": "uint256",
          "name": "",
          "type": "uint256"
        }
      ],
      "stateMutability": "nonpayable",
      "type": "function"
    },
    {
      "inputs": [],
      "name": "quorumVotes",
      "outputs": [
        {
          "internalType": "uint256",
          "name": "",
          "type": "uint256"
        }
      ],
      "stateMutability": "view",
      "type": "function"
    },
    {
      "inputs": [],
      "name": "renounceOwnership",
      "outputs": [],
      "stateMutability": "nonpayable",
      "type": "function"
    },
    {
      "inputs": [
        {
          "internalType": "uint256",
          "name": "proposalId",
          "type": "uint256"
        }
      ],
      "name": "state",
      "outputs": [
        {
          "internalType": "enum ProposalSystem.ProposalState",
          "name": "",
          "type": "uint8"
        }
      ],
      "stateMutability": "view",
      "type": "function"
    },
    {
      "inputs": [],
      "name": "token",
      "outputs": [
        {
          "internalType": "contract IERC20",
          "name": "",
          "type": "address"
        }
      ],
      "stateMutability": "view",
      "type": "function"
    },
    {
      "inputs": [
        {
          "internalType": "address",
          "name": "newOwner",
          "type": "address"
        }
      ],
      "name": "transferOwnership",
      "outputs": [],
      "stateMutability": "nonpayable",
      "type": "function"
    },
    {
      "inputs": [],
      "name": "treasury",
      "outputs": [
        {
          "internalType": "address",
          "name": "",
          "type": "address"
        }
      ],
      "stateMutability": "view",
      "type": "function"
    },
    {
      "inputs": [],
      "name": "votingDelay",
      "outputs": [
        {
          "internalType": "uint256",
          "name": "",
          "type": "uint256"
        }
      ],
      "stateMutability": "view",
      "type": "function"
    },
    {
      "inputs": [],
      "name": "votingPeriod",
      "outputs": [
        {
          "internalType": "uint256",
          "name": "",
          "type": "uint256"
        }
      ],
      "stateMutability": "view",
      "type": "function"
    }
  ],
  "bytecode": "0x60806040523480156200001157600080fd5b5060405162002f2038038062002f208339818101604052810190620000379190620002bf565b620000576200004b6200010960201b60201c565b6200011160201b60201c565b85600160006101000a81548173ffffffffffffffffffffffffffffffffffffffff021916908373ffffffffffffffffffffffffffffffffffffffff16021790555084600260006101000a81548173ffffffffffffffffffffffffffffffffffffffff021916908373ffffffffffffffffffffffffffffffffffffffff160217905550678ac7230489e800006003819055508260048190555081600581905550806006819055505050505050506200035b565b600033905090565b60008060009054906101000a900473ffffffffffffffffffffffffffffffffffffffff169050816000806101000a81548173ffffffffffffffffffffffffffffffffffffffff021916908373ffffffffffffffffffffffffffffffffffffffff1602179055508173ffffffffffffffffffffffffffffffffffffffff168173ffffffffffffffffffffffffffffffffffffffff167f8be0079c531659141344cd1fd0a4f28419497f9722a3daafe3b4186f6b6457e060405160405180910390a35050565b600080fd5b600073ffffffffffffffffffffffffffffffffffffffff82169050919050565b60006200020782620001da565b9050919050565b60006200021b82620001fa565b9050919050565b6200022d816200020e565b81146200023957600080fd5b50565b6000815190506200024d8162000222565b92915050565b6200025e81620001fa565b81146200026a57600080fd5b50565b6000815190506200027e8162000253565b92915050565b6000819050919050565b620002998162000284565b8114620002a557600080fd5b50565b600081519050620002b9816200028e565b92915050565b60008060008060008060c08789031215620002df57620002de620001d5565b5b6000620002ef89828a016200023c565b96505060206200030289828a016200026d565b95505060406200031589828a01620002a8565b94505060606200032889828a01620002a8565b93505060806200033b89828a01620002a8565b92505060a06200034e89828a01620002a8565b9150509295509295509295565b612bb5806200036b6000396000f3fe608060405234801561001057600080fd5b506004361061010b5760003560e01c806361d027b3116100a2578063b58131b011610071578063b58131b0146102d8578063c59057e4146102f6578063da35c66414610326578063f2fde38b14610344578063fc0c546a146103605761010b565b806361d027b314610262578063715018a6146102805780637d5e81e21461028a5780638da5cb5b146102ba5761010b565b80633932abb1116100de5780633932abb1146101b45780633e4f49e6146101d2578063452115d61461020257806356781388146102325761010b565b8063013cf08b1461011057806302a251a31461014857806324bc1a64146101665780632656227d14610184575b600080fd5b61012a6004803603810190610125919061129a565b61037e565b60405161013f999897969594939291906113c2565b60405180910390f35b61015061048e565b60405161015d9190611456565b60405180910390f35b61016e610494565b60405161017b9190611456565b60405180910390f35b61019e60048036038101906101999190611874565b61049a565b6040516101ab9190611456565b60405180910390f35b6101bc6106af565b6040516101c99190611456565b60405180910390f35b6101ec60048036038101906101e7919061129a565b6106b5565b6040516101f991906119a6565b60405180910390f35b61021c60048036038101906102179190611874565b610779565b6040516102299190611456565b60405180910390f35b61024c600480360381019061024791906119fa565b610902565b6040516102599190611456565b60405180910390f35b61026a610c32565b6040516102779190611a3a565b60405180910390f35b610288610c58565b005b6102a4600480360381019061029f9190611af6565b610c6c565b6040516102b19190611456565b60405180910390f35b6102c2610fec565b6040516102cf9190611a3a565b60405180910390f35b6102e0611015565b6040516102ed9190611456565b60405180910390f35b610310600480360381019061030b9190611874565b61101b565b60405161031d9190611456565b60405180910390f35b61032e611057565b60405161033b9190611456565b60405180910390f35b61035e60048036038101906103599190611bcd565b61105d565b005b6103686110e0565b6040516103759190611c59565b60405180910390f35b60086020528060005260406000206000915090508060000154908060010160009054906101000a900473ffffffffffffffffffffffffffffffffffffffff16908060020154908060030154908060040180546103d990611ca3565b80601f016020809104026020016040519081016040528092919081815260200182805461040590611ca3565b80156104525780601f1061042757610100808354040283529160200191610452565b820191906000526020600020905b81548152906001019060200180831161043557829003601f168201915b5050505050908060050154908060060154908060070160009054906101000a900460ff16908060070160019054906101000a900460ff16905089565b60045481565b60035481565b6000806104a98686868661101b565b9050600460058111156104bf576104be61192f565b5b6104c8826106b5565b60058111156104da576104d961192f565b5b1461051a576040517f08c379a000000000000000000000000000000000000000000000000000000000815260040161051190611d46565b60405180910390fd5b600060086000838152602001908152602001600020905060018160070160006101000a81548160ff02191690831515021790555060005b875181101561066a57600088828151811061056f5761056e611d66565b5b602002602001015173ffffffffffffffffffffffffffffffffffffffff168883815181106105a05761059f611d66565b5b60200260200101518884815181106105bb576105ba611d66565b5b60200260200101516040516105d09190611ddc565b60006040518083038185875af1925050503d806000811461060d576040519150601f19603f3d011682016040523d82523d6000602084013e610612565b606091505b5050905080610656576040517f08c379a000000000000000000000000000000000000000000000000000000000815260040161064d90611e65565b60405180910390fd5b50808061066290611eb4565b915050610551565b507f712ae1383f79ac853f8d882153778e0260ef8f03b504e2866e0593e04d2b291f8260405161069a9190611456565b60405180910390a18192505050949350505050565b60055481565b6000806008600084815260200190815260200160002090508060070160019054906101000a900460ff16156106ee576002915050610774565b8060070160009054906101000a900460ff161561070f576005915050610774565b6000439050816002015481101561072b57600092505050610774565b8160030154811161074157600192505050610774565b8160060154826005015411158061075d57506003548260050154105b1561076d57600392505050610774565b6004925050505b919050565b6000806107888686868661101b565b905060006008600083815260200190815260200160002090503373ffffffffffffffffffffffffffffffffffffffff168160010160009054906101000a900473ffffffffffffffffffffffffffffffffffffffff1673ffffffffffffffffffffffffffffffffffffffff1614610833576040517f08c379a000000000000000000000000000000000000000000000000000000000815260040161082a90611f6e565b60405180910390fd5b6005808111156108465761084561192f565b5b61084f836106b5565b60058111156108615761086061192f565b5b036108a1576040517f08c379a000000000000000000000000000000000000000000000000000000000815260040161089890612000565b60405180910390fd5b60018160070160016101000a81548160ff0219169083151502179055507f789cf55be980739dad1d0699b93b58e806b51c9d96619bfa8fe0a28abaa7b30c826040516108ed9190611456565b60405180910390a18192505050949350505050565b6000600160058111156109185761091761192f565b5b610921846106b5565b60058111156109335761093261192f565b5b14610973576040517f08c379a000000000000000000000000000000000000000000000000000000000815260040161096a90612092565b60405180910390fd5b6001808111156109865761098561192f565b5b60ff168260ff1611156109ce576040517f08c379a00000000000000000000000000000000000000000000000000000000081526004016109c590612124565b60405180910390fd5b60006008600085815260200190815260200160002090508060080160003373ffffffffffffffffffffffffffffffffffffffff1673ffffffffffffffffffffffffffffffffffffffff16815260200190815260200160002060009054906101000a900460ff1615610a74576040517f08c379a0000000000000000000000000000000000000000000000000000000008152600401610a6b906121b6565b60405180910390fd5b6000600160009054906101000a900473ffffffffffffffffffffffffffffffffffffffff1673ffffffffffffffffffffffffffffffffffffffff166370a08231336040518263ffffffff1660e01b8152600401610ad19190611a3a565b602060405180830381865afa158015610aee573d6000803e3d6000fd5b505050506040513d601f19601f82011682018060405250810190610b1291906121eb565b905060006001811115610b2857610b2761192f565b5b60ff168460ff1603610b545780826006016000828254610b489190612218565b92505081905550610b90565b600180811115610b6757610b6661192f565b5b60ff168460ff1603610b8f5780826005016000828254610b879190612218565b925050819055505b5b60018260080160003373ffffffffffffffffffffffffffffffffffffffff1673ffffffffffffffffffffffffffffffffffffffff16815260200190815260200160002060006101000a81548160ff0219169083151502179055507f2c9deb38f462962eadbd85a9d3a4120503ee091f1582eaaa10aa8c6797651d2933868684604051610c1f949392919061225b565b60405180910390a1809250505092915050565b600260009054906101000a900473ffffffffffffffffffffffffffffffffffffffff1681565b610c60611106565b610c6a6000611184565b565b6000600654600160009054906101000a900473ffffffffffffffffffffffffffffffffffffffff1673ffffffffffffffffffffffffffffffffffffffff166370a08231336040518263ffffffff1660e01b8152600401610ccc9190611a3a565b602060405180830381865afa158015610ce9573d6000803e3d6000fd5b505050506040513d601f19601f82011682018060405250810190610d0d91906121eb565b1015610d4e576040517f08c379a0000000000000000000000000000000000000000000000000000000008152600401610d4590612312565b60405180910390fd5b6000855111610d92576040517f08c379a0000000000000000000000000000000000000000000000000000000008152600401610d899061237e565b60405180910390fd5b83518551148015610da4575082518551145b610de3576040517f08c379a0000000000000000000000000000000000000000000000000000000008152600401610dda90612410565b60405180910390fd5b6000610df8868686868051906020012061101b565b90506000600860008381526020019081526020016000209050600073ffffffffffffffffffffffffffffffffffffffff168160010160009054906101000a900473ffffffffffffffffffffffffffffffffffffffff1673ffffffffffffffffffffffffffffffffffffffff1614610ea4576040517f08c379a0000000000000000000000000000000000000000000000000000000008152600401610e9b906124a2565b60405180910390fd5b600060055443610eb49190612218565b9050600060045482610ec69190612218565b9050838360000181905550338360010160006101000a81548173ffffffffffffffffffffffffffffffffffffffff021916908373ffffffffffffffffffffffffffffffffffffffff16021790555081836002018190555080836003018190555085836004019081610f379190612664565b50600083600501819055506000836006018190555060008360070160006101000a81548160ff02191690831515021790555060008360070160016101000a81548160ff02191690831515021790555060076000815480929190610f9990611eb4565b91905055507fa00fcf4f5e03cc2f4818b8f380a8f2a06479e49bf0765e5fec09aebdaf922bbc843384848a604051610fd5959493929190612736565b60405180910390a183945050505050949350505050565b60008060009054906101000a900473ffffffffffffffffffffffffffffffffffffffff16905090565b60065481565b6000848484846040516020016110349493929190612a27565b6040516020818303038152906040528051906020012060001c9050949350505050565b60075481565b611065611106565b600073ffffffffffffffffffffffffffffffffffffffff168173ffffffffffffffffffffffffffffffffffffffff16036110d4576040517f08c379a00000000000000000000000000000000000000000000000000000000081526004016110cb90612af3565b60405180910390fd5b6110dd81611184565b50565b600160009054906101000a900473ffffffffffffffffffffffffffffffffffffffff1681565b61110e611248565b73ffffffffffffffffffffffffffffffffffffffff1661112c610fec565b73ffffffffffffffffffffffffffffffffffffffff1614611182576040517f08c379a000000000000000000000000000000000000000000000000000000000815260040161117990612b5f565b60405180910390fd5b565b60008060009054906101000a900473ffffffffffffffffffffffffffffffffffffffff169050816000806101000a81548173ffffffffffffffffffffffffffffffffffffffff021916908373ffffffffffffffffffffffffffffffffffffffff1602179055508173ffffffffffffffffffffffffffffffffffffffff168173ffffffffffffffffffffffffffffffffffffffff167f8be0079c531659141344cd1fd0a4f28419497f9722a3daafe3b4186f6b6457e060405160405180910390a35050565b600033905090565b6000604051905090565b600080fd5b600080fd5b6000819050919050565b61127781611264565b811461128257600080fd5b50565b6000813590506112948161126e565b92915050565b6000602082840312156112b0576112af61125a565b5b60006112be84828501611285565b91505092915050565b6112d081611264565b82525050565b600073ffffffffffffffffffffffffffffffffffffffff82169050919050565b6000611301826112d6565b9050919050565b611311816112f6565b82525050565b600081519050919050565b600082825260208201905092915050565b60005b83811015611351578082015181840152602081019050611336565b60008484015250505050565b6000601f19601f8301169050919050565b600061137982611317565b6113838185611322565b9350611393818560208601611333565b61139c8161135d565b840191505092915050565b60008115159050919050565b6113bc816113a7565b82525050565b6000610120820190506113d8600083018c6112c7565b6113e5602083018b611308565b6113f2604083018a6112c7565b6113ff60608301896112c7565b8181036080830152611411818861136e565b905061142060a08301876112c7565b61142d60c08301866112c7565b61143a60e08301856113b3565b6114486101008301846113b3565b9a9950505050505050505050565b600060208201905061146b60008301846112c7565b92915050565b600080fd5b7f4e487b7100000000000000000000000000000000000000000000000000000000600052604160045260246000fd5b6114ae8261135d565b810181811067ffffffffffffffff821117156114cd576114cc611476565b5b80604052505050565b60006114e0611250565b90506114ec82826114a5565b919050565b600067ffffffffffffffff82111561150c5761150b611476565b5b602082029050602081019050919050565b600080fd5b61152b816112f6565b811461153657600080fd5b50565b60008135905061154881611522565b92915050565b600061156161155c846114f1565b6114d6565b905080838252602082019050602084028301858111156115845761158361151d565b5b835b818110156115ad57806115998882611539565b845260208401935050602081019050611586565b5050509392505050565b600082601f8301126115cc576115cb611471565b5b81356115dc84826020860161154e565b91505092915050565b600067ffffffffffffffff821115611600576115ff611476565b5b602082029050602081019050919050565b600061162461161f846115e5565b6114d6565b905080838252602082019050602084028301858111156116475761164661151d565b5b835b81811015611670578061165c8882611285565b845260208401935050602081019050611649565b5050509392505050565b600082601f83011261168f5761168e611471565b5b813561169f848260208601611611565b91505092915050565b600067ffffffffffffffff8211156116c3576116c2611476565b5b602082029050602081019050919050565b600080fd5b600067ffffffffffffffff8211156116f4576116f3611476565b5b6116fd8261135d565b9050602081019050919050565b82818337600083830152505050565b600061172c611727846116d9565b6114d6565b905082815260208101848484011115611748576117476116d4565b5b61175384828561170a565b509392505050565b600082601f8301126117705761176f611471565b5b8135611780848260208601611719565b91505092915050565b600061179c611797846116a8565b6114d6565b905080838252602082019050602084028301858111156117bf576117be61151d565b5b835b8181101561180657803567ffffffffffffffff8111156117e4576117e3611471565b5b8086016117f1898261175b565b855260208501945050506020810190506117c1565b5050509392505050565b600082601f83011261182557611824611471565b5b8135611835848260208601611789565b91505092915050565b6000819050919050565b6118518161183e565b811461185c57600080fd5b50565b60008135905061186e81611848565b92915050565b6000806000806080858703121561188e5761188d61125a565b5b600085013567ffffffffffffffff8111156118ac576118ab61125f565b5b6118b8878288016115b7565b945050602085013567ffffffffffffffff8111156118d9576118d861125f565b5b6118e58782880161167a565b935050604085013567ffffffffffffffff8111156119065761190561125f565b5b61191287828801611810565b92505060606119238782880161185f565b91505092959194509250565b7f4e487b7100000000000000000000000000000000000000000000000000000000600052602160045260246000fd5b6006811061196f5761196e61192f565b5b50565b60008190506119808261195e565b919050565b600061199082611972565b9050919050565b6119a081611985565b82525050565b60006020820190506119bb6000830184611997565b92915050565b600060ff82169050919050565b6119d7816119c1565b81146119e257600080fd5b50565b6000813590506119f4816119ce565b92915050565b60008060408385031215611a1157611a1061125a565b5b6000611a1f85828601611285565b9250506020611a30858286016119e5565b9150509250929050565b6000602082019050611a4f6000830184611308565b92915050565b600067ffffffffffffffff821115611a7057611a6f611476565b5b611a798261135d565b9050602081019050919050565b6000611a99611a9484611a55565b6114d6565b905082815260208101848484011115611ab557611ab46116d4565b5b611ac084828561170a565b509392505050565b600082601f830112611add57611adc611471565b5b8135611aed848260208601611a86565b91505092915050565b60008060008060808587031215611b1057611b0f61125a565b5b600085013567ffffffffffffffff811115611b2e57611b2d61125f565b5b611b3a878288016115b7565b945050602085013567ffffffffffffffff811115611b5b57611b5a61125f565b5b611b678782880161167a565b935050604085013567ffffffffffffffff811115611b8857611b8761125f565b5b611b9487828801611810565b925050606085013567ffffffffffffffff811115611bb557611bb461125f565b5b611bc187828801611ac8565b91505092959194509250565b600060208284031215611be357611be261125a565b5b6000611bf184828501611539565b91505092915050565b6000819050919050565b6000611c1f611c1a611c15846112d6565b611bfa565b6112d6565b9050919050565b6000611c3182611c04565b9050919050565b6000611c4382611c26565b9050919050565b611c5381611c38565b82525050565b6000602082019050611c6e6000830184611c4a565b92915050565b7f4e487b7100000000000000000000000000000000000000000000000000000000600052602260045260246000fd5b60006002820490506001821680611cbb57607f821691505b602082108103611cce57611ccd611c74565b5b50919050565b7f50726f706f73616c53797374656d3a2070726f706f73616c206e6f742073756360008201527f6365737366756c00000000000000000000000000000000000000000000000000602082015250565b6000611d30602783611322565b9150611d3b82611cd4565b604082019050919050565b60006020820190508181036000830152611d5f81611d23565b9050919050565b7f4e487b7100000000000000000000000000000000000000000000000000000000600052603260045260246000fd5b600081519050919050565b600081905092915050565b6000611db682611d95565b611dc08185611da0565b9350611dd0818560208601611333565b80840191505092915050565b6000611de88284611dab565b915081905092915050565b7f50726f706f73616c53797374656d3a207472616e73616374696f6e206578656360008201527f7574696f6e207265766572746564000000000000000000000000000000000000602082015250565b6000611e4f602e83611322565b9150611e5a82611df3565b604082019050919050565b60006020820190508181036000830152611e7e81611e42565b9050919050565b7f4e487b7100000000000000000000000000000000000000000000000000000000600052601160045260246000fd5b6000611ebf82611264565b91507fffffffffffffffffffffffffffffffffffffffffffffffffffffffffffffffff8203611ef157611ef0611e85565b5b600182019050919050565b7f50726f706f73616c53797374656d3a206f6e6c792070726f706f73657220636160008201527f6e2063616e63656c000000000000000000000000000000000000000000000000602082015250565b6000611f58602883611322565b9150611f6382611efc565b604082019050919050565b60006020820190508181036000830152611f8781611f4b565b9050919050565b7f50726f706f73616c53797374656d3a2063616e6e6f742063616e63656c20657860008201527f6563757465642070726f706f73616c0000000000000000000000000000000000602082015250565b6000611fea602f83611322565b9150611ff582611f8e565b604082019050919050565b6000602082019050818103600083015261201981611fdd565b9050919050565b7f50726f706f73616c53797374656d3a2070726f706f73616c206e6f742061637460008201527f6976650000000000000000000000000000000000000000000000000000000000602082015250565b600061207c602383611322565b915061208782612020565b604082019050919050565b600060208201905081810360008301526120ab8161206f565b9050919050565b7f50726f706f73616c53797374656d3a20696e76616c696420766f74652074797060008201527f6500000000000000000000000000000000000000000000000000000000000000602082015250565b600061210e602183611322565b9150612119826120b2565b604082019050919050565b6000602082019050818103600083015261213d81612101565b9050919050565b7f50726f706f73616c53797374656d3a20766f746520616c72656164792063617360008201527f7400000000000000000000000000000000000000000000000000000000000000602082015250565b60006121a0602183611322565b91506121ab82612144565b604082019050919050565b600060208201905081810360008301526121cf81612193565b9050919050565b6000815190506121e58161126e565b92915050565b6000602082840312156122015761220061125a565b5b600061220f848285016121d6565b91505092915050565b600061222382611264565b915061222e83611264565b925082820190508082111561224657612245611e85565b5b92915050565b612255816119c1565b82525050565b60006080820190506122706000830187611308565b61227d60208301866112c7565b61228a604083018561224c565b61229760608301846112c7565b95945050505050565b7f50726f706f73616c53797374656d3a2070726f706f73657220766f746573206260008201527f656c6f772070726f706f73616c207468726573686f6c64000000000000000000602082015250565b60006122fc603783611322565b9150612307826122a0565b604082019050919050565b6000602082019050818103600083015261232b816122ef565b9050919050565b7f50726f706f73616c53797374656d3a20656d7074792070726f706f73616c0000600082015250565b6000612368601e83611322565b915061237382612332565b602082019050919050565b600060208201905081810360008301526123978161235b565b9050919050565b7f50726f706f73616c53797374656d3a20696e76616c69642070726f706f73616c60008201527f206c656e67746800000000000000000000000000000000000000000000000000602082015250565b60006123fa602783611322565b91506124058261239e565b604082019050919050565b60006020820190508181036000830152612429816123ed565b9050919050565b7f50726f706f73616c53797374656d3a2070726f706f73616c20616c726561647960008201527f2065786973747300000000000000000000000000000000000000000000000000602082015250565b600061248c602783611322565b915061249782612430565b604082019050919050565b600060208201905081810360008301526124bb8161247f565b9050919050565b60008190508160005260206000209050919050565b60006020601f8301049050919050565b600082821b905092915050565b6000600883026125247fffffffffffffffffffffffffffffffffffffffffffffffffffffffffffffffff826124e7565b61252e86836124e7565b95508019841693508086168417925050509392505050565b600061256161255c61255784611264565b611bfa565b611264565b9050919050565b6000819050919050565b61257b83612546565b61258f61258782612568565b8484546124f4565b825550505050565b600090565b6125a4612597565b6125af818484612572565b505050565b5b818110156125d3576125c860008261259c565b6001810190506125b5565b5050565b601f821115612618576125e9816124c2565b6125f2846124d7565b81016020851015612601578190505b61261561260d856124d7565b8301826125b4565b50505b505050565b600082821c905092915050565b600061263b6000198460080261261d565b1980831691505092915050565b6000612654838361262a565b9150826002028217905092915050565b61266d82611317565b67ffffffffffffffff81111561268657612685611476565b5b6126908254611ca3565b61269b8282856125d7565b600060209050601f8311600181146126ce57600084156126bc578287015190505b6126c68582612648565b86555061272e565b601f1984166126dc866124c2565b60005b82811015612704578489015182556001820191506020850194506020810190506126df565b86831015612721578489015161271d601f89168261262a565b8355505b6001600288020188555050505b505050505050565b600060a08201905061274b60008301886112c7565b6127586020830187611308565b61276560408301866112c7565b61277260608301856112c7565b8181036080830152612784818461136e565b90509695505050505050565b600081519050919050565b600082825260208201905092915050565b6000819050602082019050919050565b6127c5816112f6565b82525050565b60006127d783836127bc565b60208301905092915050565b6000602082019050919050565b60006127fb82612790565b612805818561279b565b9350612810836127ac565b8060005b8381101561284157815161282888826127cb565b9750612833836127e3565b925050600181019050612814565b5085935050505092915050565b600081519050919050565b600082825260208201905092915050565b6000819050602082019050919050565b61288381611264565b82525050565b6000612895838361287a565b60208301905092915050565b6000602082019050919050565b60006128b98261284e565b6128c38185612859565b93506128ce8361286a565b8060005b838110156128ff5781516128e68882612889565b97506128f1836128a1565b9250506001810190506128d2565b5085935050505092915050565b600081519050919050565b600082825260208201905092915050565b6000819050602082019050919050565b600082825260208201905092915050565b600061295482611d95565b61295e8185612938565b935061296e818560208601611333565b6129778161135d565b840191505092915050565b600061298e8383612949565b905092915050565b6000602082019050919050565b60006129ae8261290c565b6129b88185612917565b9350836020820285016129ca85612928565b8060005b85811015612a0657848403895281516129e78582612982565b94506129f283612996565b925060208a019950506001810190506129ce565b50829750879550505050505092915050565b612a218161183e565b82525050565b60006080820190508181036000830152612a4181876127f0565b90508181036020830152612a5581866128ae565b90508181036040830152612a6981856129a3565b9050612a786060830184612a18565b95945050505050565b7f4f776e61626c653a206e6577206f776e657220697320746865207a65726f206160008201527f6464726573730000000000000000000000000000000000000000000000000000602082015250565b6000612add602683611322565b9150612ae882612a81565b604082019050919050565b60006020820190508181036000830152612b0c81612ad0565b9050919050565b7f4f776e61626c653a2063616c6c6572206973206e6f7420746865206f776e6572600082015250565b6000612b49602083611322565b9150612b5482612b13565b602082019050919050565b60006020820190508181036000830152612b7881612b3c565b905091905056fea264697066735822122028d25df96d2328e4bc0ed017abb2239bb84a23bb5998c54e7a328938be6bf7be64736f6c63430008110033",
  "linkReferences": {},
  "deployedLinkReferences": {}
}