{
  "_format": "hh-sol-artifact-1",
  "contractName": "Treasury",
  "sourceName": "contracts/treasury/Treasury.sol",
  "abi": [
    {
      "inputs": [],
      "stateMutability": "nonpayable",
      "type": "constructor"
    },
    {
      "anonymous": false,
      "inputs": [
        {
          "indexed": true,
          "internalType": "address",
          "name": "recipient",
          "type": "address"
        },
        {
          "indexed": false,
          "internalType": "uint256",
          "name": "amount",
          "type": "uint256"
        },
        {
          "indexed": false,
          "internalType": "string",
          "name": "purpose",
          "type": "string"
        }
      ],
      "name": "FundsAllocated",
      "type": "event"
    },
    {
      "anonymous": false,
      "inputs": [
        {
          "indexed": true,
          "internalType": "bytes32",
          "name": "role",
          "type": "bytes32"
        },
        {
          "indexed": true,
          "internalType": "bytes32",
          "name": "previousAdminRole",
          "type": "bytes32"
        },
        {
          "indexed": true,
          "internalType": "bytes32",
          "name": "newAdminRole",
          "type": "bytes32"
        }
      ],
      "name": "RoleAdminChanged",
      "type": "event"
    },
    {
      "anonymous": false,
      "inputs": [
        {
          "indexed": true,
          "internalType": "bytes32",
          "name": "role",
          "type": "bytes32"
        },
        {
          "indexed": true,
          "internalType": "address",
          "name": "account",
          "type": "address"
        },
        {
          "indexed": true,
          "internalType": "address",
          "name": "sender",
          "type": "address"
        }
      ],
      "name": "RoleGranted",
      "type": "event"
    },
    {
      "anonymous": false,
      "inputs": [
        {
          "indexed": true,
          "internalType": "bytes32",
          "name": "role",
          "type": "bytes32"
        },
        {
          "indexed": true,
          "internalType": "address",
          "name": "account",
          "type": "address"
        },
        {
          "indexed": true,
          "internalType": "address",
          "name": "sender",
          "type": "address"
        }
      ],
      "name": "RoleRevoked",
      "type": "event"
    },
    {
      "anonymous": false,
      "inputs": [
        {
          "indexed": true,
          "internalType": "address",
          "name": "token",
          "type": "address"
        },
        {
          "indexed": true,
          "internalType": "address",
          "name": "recipient",
          "type": "address"
        },
        {
          "indexed": false,
          "internalType": "uint256",
          "name": "amount",
          "type": "uint256"
        },
        {
          "indexed": false,
          "internalType": "string",
          "name": "purpose",
          "type": "string"
        }
      ],
      "name": "TokensAllocated",
      "type": "event"
    },
    {
      "inputs": [],
      "name": "DEFAULT_ADMIN_ROLE",
      "outputs": [
        {
          "internalType": "bytes32",
          "name": "",
          "type": "bytes32"
        }
      ],
      "stateMutability": "view",
      "type": "function"
    },
    {
      "inputs": [],
      "name": "GOVERNOR_ROLE",
      "outputs": [
        {
          "internalType": "bytes32",
          "name": "",
          "type": "bytes32"
        }
      ],
      "stateMutability": "view",
      "type": "function"
    },
    {
      "inputs": [
        {
          "internalType": "address payable",
          "name": "recipient",
          "type": "address"
        },
        {
          "internalType": "uint256",
          "name": "amount",
          "type": "uint256"
        },
        {
          "internalType": "string",
          "name": "purpose",
          "type": "string"
        }
      ],
      "name": "allocateFunds",
      "outputs": [],
      "stateMutability": "nonpayable",
      "type": "function"
    },
    {
      "inputs": [
        {
          "internalType": "address",
          "name": "tokenAddress",
          "type": "address"
        },
        {
          "internalType": "address",
          "name": "recipient",
          "type": "address"
        },
        {
          "internalType": "uint256",
          "name": "amount",
          "type": "uint256"
        },
        {
          "internalType": "string",
          "name": "purpose",
          "type": "string"
        }
      ],
      "name": "allocateTokens",
      "outputs": [],
      "stateMutability": "nonpayable",
      "type": "function"
    },
    {
      "inputs": [],
      "name": "getBalance",
      "outputs": [
        {
          "internalType": "uint256",
          "name": "",
          "type": "uint256"
        }
      ],
      "stateMutability": "view",
      "type": "function"
    },
    {
      "inputs": [
        {
          "internalType": "bytes32",
          "name": "role",
          "type": "bytes32"
        }
      ],
      "name": "getRoleAdmin",
      "outputs": [
        {
          "internalType": "bytes32",
          "name": "",
          "type": "bytes32"
        }
      ],
      "stateMutability": "view",
      "type": "function"
    },
    {
      "inputs": [
        {
          "internalType": "address",
          "name": "tokenAddress",
          "type": "address"
        }
      ],
      "name": "getTokenBalance",
      "outputs": [
        {
          "internalType": "uint256",
          "name": "",
          "type": "uint256"
        }
      ],
      "stateMutability": "view",
      "type": "function"
    },
    {
      "inputs": [
        {
          "internalType": "bytes32",
          "name": "role",
          "type": "bytes32"
        },
        {
          "internalType": "address",
          "name": "account",
          "type": "address"
        }
      ],
      "name": "grantRole",
      "outputs": [],
      "stateMutability": "nonpayable",
      "type": "function"
    },
    {
      "inputs": [
        {
          "internalType": "bytes32",
          "name": "role",
          "type": "bytes32"
        },
        {
          "internalType": "address",
          "name": "account",
          "type": "address"
        }
      ],
      "name": "hasRole",
      "outputs": [
        {
          "internalType": "bool",
          "name": "",
          "type": "bool"
        }
      ],
      "stateMutability": "view",
      "type": "function"
    },
    {
      "inputs": [
        {
          "internalType": "bytes32",
          "name": "role",
          "type": "bytes32"
        },
        {
          "internalType": "address",
          "name": "account",
          "type": "address"
        }
      ],
      "name": "renounceRole",
      "outputs": [],
      "stateMutability": "nonpayable",
      "type": "function"
    },
    {
      "inputs": [
        {
          "internalType": "bytes32",
          "name": "role",
          "type": "bytes32"
        },
        {
          "internalType": "address",
          "name": "account",
          "type": "address"
        }
      ],
      "name": "revokeRole",
      "outputs": [],
      "stateMutability": "nonpayable",
      "type": "function"
    },
    {
      "inputs": [
        {
          "internalType": "bytes4",
          "name": "interfaceId",
          "type": "bytes4"
        }
      ],
      "name": "supportsInterface",
      "outputs": [
        {
          "internalType": "bool",
          "name": "",
          "type": "bool"
        }
      ],
      "stateMutability": "view",
      "type": "function"
    },
    {
      "stateMutability": "payable",
      "type": "receive"
    }
  ],
  "bytecode": "0x60806040523480156200001157600080fd5b50620000276000801b336200005f60201b60201c565b620000597f7935bd0ae54bc31f548c14dba4d37c5c64b3f8ca900cb468fb8abd54d5894f55336200005f60201b60201c565b620001c2565b6200007182826200015060201b60201c565b6200014c57600160008084815260200190815260200160002060000160008373ffffffffffffffffffffffffffffffffffffffff1673ffffffffffffffffffffffffffffffffffffffff16815260200190815260200160002060006101000a81548160ff021916908315150217905550620000f1620001ba60201b60201c565b73ffffffffffffffffffffffffffffffffffffffff168173ffffffffffffffffffffffffffffffffffffffff16837f2f8788117e7eff1d82e926ec794901d17c78024a50270940304540a733656f0d60405160405180910390a45b5050565b600080600084815260200190815260200160002060000160008373ffffffffffffffffffffffffffffffffffffffff1673ffffffffffffffffffffffffffffffffffffffff16815260200190815260200160002060009054906101000a900460ff16905092915050565b600033905090565b61191180620001d26000396000f3fe6080604052600436106100ab5760003560e01c80633aecd0e3116100645780633aecd0e3146101d75780638ada70071461021457806391d148541461023d578063a217fddf1461027a578063ccc57490146102a5578063d547741f146102d0576100b2565b806301ffc9a7146100b757806312065fe0146100f45780631353c1f91461011f578063248a9ca3146101485780632f2ff15d1461018557806336568abe146101ae576100b2565b366100b257005b600080fd5b3480156100c357600080fd5b506100de60048036038101906100d99190610e3e565b6102f9565b6040516100eb9190610e86565b60405180910390f35b34801561010057600080fd5b50610109610373565b6040516101169190610eba565b60405180910390f35b34801561012b57600080fd5b50610146600480360381019061014191906110a5565b61037b565b005b34801561015457600080fd5b5061016f600480360381019061016a919061115e565b610592565b60405161017c919061119a565b60405180910390f35b34801561019157600080fd5b506101ac60048036038101906101a791906111b5565b6105b1565b005b3480156101ba57600080fd5b506101d560048036038101906101d091906111b5565b6105d2565b005b3480156101e357600080fd5b506101fe60048036038101906101f991906111f5565b610655565b60405161020b9190610eba565b60405180910390f35b34801561022057600080fd5b5061023b60048036038101906102369190611260565b6106dd565b005b34801561024957600080fd5b50610264600480360381019061025f91906111b5565b6107e7565b6040516102719190610e86565b60405180910390f35b34801561028657600080fd5b5061028f610851565b60405161029c919061119a565b60405180910390f35b3480156102b157600080fd5b506102ba610858565b6040516102c7919061119a565b60405180910390f35b3480156102dc57600080fd5b506102f760048036038101906102f291906111b5565b61087c565b005b60007f7965db0b000000000000000000000000000000000000000000000000000000007bffffffffffffffffffffffffffffffffffffffffffffffffffffffff1916827bffffffffffffffffffffffffffffffffffffffffffffffffffffffff1916148061036c575061036b8261089d565b5b9050919050565b600047905090565b7f7935bd0ae54bc31f548c14dba4d37c5c64b3f8ca900cb468fb8abd54d5894f556103a581610907565b6000859050838173ffffffffffffffffffffffffffffffffffffffff166370a08231306040518263ffffffff1660e01b81526004016103e491906112de565b602060405180830381865afa158015610401573d6000803e3d6000fd5b505050506040513d601f19601f82011682018060405250810190610425919061130e565b1015610466576040517f08c379a000000000000000000000000000000000000000000000000000000000815260040161045d90611398565b60405180910390fd5b8073ffffffffffffffffffffffffffffffffffffffff1663a9059cbb86866040518363ffffffff1660e01b81526004016104a19291906113b8565b6020604051808303816000875af11580156104c0573d6000803e3d6000fd5b505050506040513d601f19601f820116820180604052508101906104e4919061140d565b610523576040517f08c379a000000000000000000000000000000000000000000000000000000000815260040161051a90611486565b60405180910390fd5b8473ffffffffffffffffffffffffffffffffffffffff168673ffffffffffffffffffffffffffffffffffffffff167f424fb84a9838e3f6a3239e6611ba376496c5f3fafba0a56de1a9da9b602a454f8686604051610582929190611514565b60405180910390a3505050505050565b6000806000838152602001908152602001600020600101549050919050565b6105ba82610592565b6105c381610907565b6105cd838361091b565b505050565b6105da6109fb565b73ffffffffffffffffffffffffffffffffffffffff168173ffffffffffffffffffffffffffffffffffffffff1614610647576040517f08c379a000000000000000000000000000000000000000000000000000000000815260040161063e906115b6565b60405180910390fd5b6106518282610a03565b5050565b6000808290508073ffffffffffffffffffffffffffffffffffffffff166370a08231306040518263ffffffff1660e01b815260040161069491906112de565b602060405180830381865afa1580156106b1573d6000803e3d6000fd5b505050506040513d601f19601f820116820180604052508101906106d5919061130e565b915050919050565b7f7935bd0ae54bc31f548c14dba4d37c5c64b3f8ca900cb468fb8abd54d5894f5561070781610907565b8247101561074a576040517f08c379a000000000000000000000000000000000000000000000000000000000815260040161074190611622565b60405180910390fd5b8373ffffffffffffffffffffffffffffffffffffffff166108fc849081150290604051600060405180830381858888f19350505050158015610790573d6000803e3d6000fd5b508373ffffffffffffffffffffffffffffffffffffffff167f375efe875f9cd6a664bdcb7c786b099b864a5ef3a60741abec505c92965932c684846040516107d9929190611514565b60405180910390a250505050565b600080600084815260200190815260200160002060000160008373ffffffffffffffffffffffffffffffffffffffff1673ffffffffffffffffffffffffffffffffffffffff16815260200190815260200160002060009054906101000a900460ff16905092915050565b6000801b81565b7f7935bd0ae54bc31f548c14dba4d37c5c64b3f8ca900cb468fb8abd54d5894f5581565b61088582610592565b61088e81610907565b6108988383610a03565b505050565b60007f01ffc9a7000000000000000000000000000000000000000000000000000000007bffffffffffffffffffffffffffffffffffffffffffffffffffffffff1916827bffffffffffffffffffffffffffffffffffffffffffffffffffffffff1916149050919050565b610918816109136109fb565b610ae4565b50565b61092582826107e7565b6109f757600160008084815260200190815260200160002060000160008373ffffffffffffffffffffffffffffffffffffffff1673ffffffffffffffffffffffffffffffffffffffff16815260200190815260200160002060006101000a81548160ff02191690831515021790555061099c6109fb565b73ffffffffffffffffffffffffffffffffffffffff168173ffffffffffffffffffffffffffffffffffffffff16837f2f8788117e7eff1d82e926ec794901d17c78024a50270940304540a733656f0d60405160405180910390a45b5050565b600033905090565b610a0d82826107e7565b15610ae057600080600084815260200190815260200160002060000160008373ffffffffffffffffffffffffffffffffffffffff1673ffffffffffffffffffffffffffffffffffffffff16815260200190815260200160002060006101000a81548160ff021916908315150217905550610a856109fb565b73ffffffffffffffffffffffffffffffffffffffff168173ffffffffffffffffffffffffffffffffffffffff16837ff6391f5c32d9c69d2a47ea670b442974b53935d1edc7fd64eb21e047a839171b60405160405180910390a45b5050565b610aee82826107e7565b610b6557610afb81610b69565b610b098360001c6020610b96565b604051602001610b1a929190611716565b6040516020818303038152906040526040517f08c379a0000000000000000000000000000000000000000000000000000000008152600401610b5c9190611750565b60405180910390fd5b5050565b6060610b8f8273ffffffffffffffffffffffffffffffffffffffff16601460ff16610b96565b9050919050565b606060006002836002610ba991906117a1565b610bb391906117e3565b67ffffffffffffffff811115610bcc57610bcb610f7a565b5b6040519080825280601f01601f191660200182016040528015610bfe5781602001600182028036833780820191505090505b5090507f300000000000000000000000000000000000000000000000000000000000000081600081518110610c3657610c35611817565b5b60200101907effffffffffffffffffffffffffffffffffffffffffffffffffffffffffffff1916908160001a9053507f780000000000000000000000000000000000000000000000000000000000000081600181518110610c9a57610c99611817565b5b60200101907effffffffffffffffffffffffffffffffffffffffffffffffffffffffffffff1916908160001a90535060006001846002610cda91906117a1565b610ce491906117e3565b90505b6001811115610d84577f3031323334353637383961626364656600000000000000000000000000000000600f861660108110610d2657610d25611817565b5b1a60f81b828281518110610d3d57610d3c611817565b5b60200101907effffffffffffffffffffffffffffffffffffffffffffffffffffffffffffff1916908160001a905350600485901c945080610d7d90611846565b9050610ce7565b5060008414610dc8576040517f08c379a0000000000000000000000000000000000000000000000000000000008152600401610dbf906118bb565b60405180910390fd5b8091505092915050565b6000604051905090565b600080fd5b600080fd5b60007fffffffff0000000000000000000000000000000000000000000000000000000082169050919050565b610e1b81610de6565b8114610e2657600080fd5b50565b600081359050610e3881610e12565b92915050565b600060208284031215610e5457610e53610ddc565b5b6000610e6284828501610e29565b91505092915050565b60008115159050919050565b610e8081610e6b565b82525050565b6000602082019050610e9b6000830184610e77565b92915050565b6000819050919050565b610eb481610ea1565b82525050565b6000602082019050610ecf6000830184610eab565b92915050565b600073ffffffffffffffffffffffffffffffffffffffff82169050919050565b6000610f0082610ed5565b9050919050565b610f1081610ef5565b8114610f1b57600080fd5b50565b600081359050610f2d81610f07565b92915050565b610f3c81610ea1565b8114610f4757600080fd5b50565b600081359050610f5981610f33565b92915050565b600080fd5b600080fd5b6000601f19601f8301169050919050565b7f4e487b7100000000000000000000000000000000000000000000000000000000600052604160045260246000fd5b610fb282610f69565b810181811067ffffffffffffffff82111715610fd157610fd0610f7a565b5b80604052505050565b6000610fe4610dd2565b9050610ff08282610fa9565b919050565b600067ffffffffffffffff8211156110105761100f610f7a565b5b61101982610f69565b9050602081019050919050565b82818337600083830152505050565b600061104861104384610ff5565b610fda565b90508281526020810184848401111561106457611063610f64565b5b61106f848285611026565b509392505050565b600082601f83011261108c5761108b610f5f565b5b813561109c848260208601611035565b91505092915050565b600080600080608085870312156110bf576110be610ddc565b5b60006110cd87828801610f1e565b94505060206110de87828801610f1e565b93505060406110ef87828801610f4a565b925050606085013567ffffffffffffffff8111156111105761110f610de1565b5b61111c87828801611077565b91505092959194509250565b6000819050919050565b61113b81611128565b811461114657600080fd5b50565b60008135905061115881611132565b92915050565b60006020828403121561117457611173610ddc565b5b600061118284828501611149565b91505092915050565b61119481611128565b82525050565b60006020820190506111af600083018461118b565b92915050565b600080604083850312156111cc576111cb610ddc565b5b60006111da85828601611149565b92505060206111eb85828601610f1e565b9150509250929050565b60006020828403121561120b5761120a610ddc565b5b600061121984828501610f1e565b91505092915050565b600061122d82610ed5565b9050919050565b61123d81611222565b811461124857600080fd5b50565b60008135905061125a81611234565b92915050565b60008060006060848603121561127957611278610ddc565b5b60006112878682870161124b565b935050602061129886828701610f4a565b925050604084013567ffffffffffffffff8111156112b9576112b8610de1565b5b6112c586828701611077565b9150509250925092565b6112d881610ef5565b82525050565b60006020820190506112f360008301846112cf565b92915050565b60008151905061130881610f33565b92915050565b60006020828403121561132457611323610ddc565b5b6000611332848285016112f9565b91505092915050565b600082825260208201905092915050565b7f496e73756666696369656e7420746f6b656e2062616c616e6365000000000000600082015250565b6000611382601a8361133b565b915061138d8261134c565b602082019050919050565b600060208201905081810360008301526113b181611375565b9050919050565b60006040820190506113cd60008301856112cf565b6113da6020830184610eab565b9392505050565b6113ea81610e6b565b81146113f557600080fd5b50565b600081519050611407816113e1565b92915050565b60006020828403121561142357611422610ddc565b5b6000611431848285016113f8565b91505092915050565b7f546f6b656e207472616e73666572206661696c65640000000000000000000000600082015250565b600061147060158361133b565b915061147b8261143a565b602082019050919050565b6000602082019050818103600083015261149f81611463565b9050919050565b600081519050919050565b60005b838110156114cf5780820151818401526020810190506114b4565b60008484015250505050565b60006114e6826114a6565b6114f0818561133b565b93506115008185602086016114b1565b61150981610f69565b840191505092915050565b60006040820190506115296000830185610eab565b818103602083015261153b81846114db565b90509392505050565b7f416363657373436f6e74726f6c3a2063616e206f6e6c792072656e6f756e636560008201527f20726f6c657320666f722073656c660000000000000000000000000000000000602082015250565b60006115a0602f8361133b565b91506115ab82611544565b604082019050919050565b600060208201905081810360008301526115cf81611593565b9050919050565b7f496e73756666696369656e742066756e64730000000000000000000000000000600082015250565b600061160c60128361133b565b9150611617826115d6565b602082019050919050565b6000602082019050818103600083015261163b816115ff565b9050919050565b600081905092915050565b7f416363657373436f6e74726f6c3a206163636f756e7420000000000000000000600082015250565b6000611683601783611642565b915061168e8261164d565b601782019050919050565b60006116a4826114a6565b6116ae8185611642565b93506116be8185602086016114b1565b80840191505092915050565b7f206973206d697373696e6720726f6c6520000000000000000000000000000000600082015250565b6000611700601183611642565b915061170b826116ca565b601182019050919050565b600061172182611676565b915061172d8285611699565b9150611738826116f3565b91506117448284611699565b91508190509392505050565b6000602082019050818103600083015261176a81846114db565b905092915050565b7f4e487b7100000000000000000000000000000000000000000000000000000000600052601160045260246000fd5b60006117ac82610ea1565b91506117b783610ea1565b92508282026117c581610ea1565b915082820484148315176117dc576117db611772565b5b5092915050565b60006117ee82610ea1565b91506117f983610ea1565b925082820190508082111561181157611810611772565b5b92915050565b7f4e487b7100000000000000000000000000000000000000000000000000000000600052603260045260246000fd5b600061185182610ea1565b91506000820361186457611863611772565b5b600182039050919050565b7f537472696e67733a20686578206c656e67746820696e73756666696369656e74600082015250565b60006118a560208361133b565b91506118b08261186f565b602082019050919050565b600060208201905081810360008301526118d481611898565b905091905056fea2646970667358221220a3fc9ffa69698659b15d0b0265d8c0ef230433424ebd0ef02207e6fd4d78a9c864736f6c63430008110033",
  "linkReferences": {},
  "deployedLinkReferences": {}
}